{
  "contractName": "idDatabase",
  "abi": [
    {
      "constant": false,
      "inputs": [
        {
          "internalType": "string",
          "name": "_fingerprint",
          "type": "string"
        }
      ],
      "name": "addCopyright",
      "outputs": [],
      "payable": false,
      "stateMutability": "nonpayable",
      "type": "function"
    },
    {
      "constant": false,
      "inputs": [
        {
          "internalType": "string",
          "name": "_fingerprint",
          "type": "string"
        }
      ],
      "name": "buyCopyright",
      "outputs": [],
      "payable": true,
      "stateMutability": "payable",
      "type": "function"
    }
  ],
  "bytecode": "0x608060405234801561001057600080fd5b50610dd9806100206000396000f3fe6080604052600436106100295760003560e01c806320c4b78c1461002e5780636e298d35146100e9575b600080fd5b6100e76004803603602081101561004457600080fd5b810190808035906020019064010000000081111561006157600080fd5b82018360208201111561007357600080fd5b8035906020019184600183028401116401000000008311171561009557600080fd5b91908080601f016020809104026020016040519081016040528093929190818152602001838380828437600081840152601f19601f8201169050808301925050505050505091929192905050506101b1565b005b3480156100f557600080fd5b506101af6004803603602081101561010c57600080fd5b810190808035906020019064010000000081111561012957600080fd5b82018360208201111561013b57600080fd5b8035906020019184600183028401116401000000008311171561015d57600080fd5b91908080601f016020809104026020016040519081016040528093929190818152602001838380828437600081840152601f19601f82011690508083019250505050505050919291929050505061070e565b005b60006003826040518082805190602001908083835b602083106101e957805182526020820191506020810190506020830392506101c6565b6001836020036101000a03801982511681845116808217855250505050505090500191505090815260200160405180910390209050600115158160040160009054906101000a900460ff1615151480156102c05750600115156003836040518082805190602001908083835b602083106102785780518252602082019150602081019050602083039250610255565b6001836020036101000a038019825116818451168082178552505050505050905001915050908152602001604051809103902060010160149054906101000a900460ff161515145b610332576040517f08c379a00000000000000000000000000000000000000000000000000000000081526004018080602001828103825260108152602001807f4973206e6f7420666f722073616c65210000000000000000000000000000000081525060200191505060405180910390fd5b8060010160009054906101000a900473ffffffffffffffffffffffffffffffffffffffff1673ffffffffffffffffffffffffffffffffffffffff163373ffffffffffffffffffffffffffffffffffffffff1614156103f8576040517f08c379a000000000000000000000000000000000000000000000000000000000815260040180806020018281038252601e8152602001807f546865206f776e65722063616e206e6f7420626520746865206275796572000081525060200191505060405180910390fd5b8060020154341015610472576040517f08c379a000000000000000000000000000000000000000000000000000000000815260040180806020018281038252601c8152602001807f5468652066756e647320617265206e6f742073756666696369656e740000000081525060200191505060405180910390fd5b8060010160009054906101000a900473ffffffffffffffffffffffffffffffffffffffff1673ffffffffffffffffffffffffffffffffffffffff166108fc349081150290604051600060405180830381858888f193505050501580156104dc573d6000803e3d6000fd5b50338160010160006101000a81548173ffffffffffffffffffffffffffffffffffffffff021916908373ffffffffffffffffffffffffffffffffffffffff160217905550600160048054905011156106775760008160030154905060046001600480549050038154811061054c57fe5b90600052602060002090600502016004828154811061056757fe5b90600052602060002090600502016000820181600001908054600181600116156101000203166002900461059c929190610b35565b506001820160009054906101000a900473ffffffffffffffffffffffffffffffffffffffff168160010160006101000a81548173ffffffffffffffffffffffffffffffffffffffff021916908373ffffffffffffffffffffffffffffffffffffffff1602179055506001820160149054906101000a900460ff168160010160146101000a81548160ff02191690831515021790555060028201548160020155600382015481600301556004820160009054906101000a900460ff168160040160006101000a81548160ff021916908315150217905550905050505b600480548061068257fe5b6001900381819060005260206000209060050201600080820160006106a79190610bbc565b6001820160006101000a81549073ffffffffffffffffffffffffffffffffffffffff02191690556001820160146101000a81549060ff0219169055600282016000905560038201600090556004820160006101000a81549060ff0219169055505090555050565b600015156003826040518082805190602001908083835b602083106107485780518252602082019150602081019050602083039250610725565b6001836020036101000a038019825116818451168082178552505050505050905001915050908152602001604051809103902060040160009054906101000a900460ff161515146107e4576040517f08c379a000000000000000000000000000000000000000000000000000000000815260040180806020018281038252602b815260200180610d7a602b913960400191505060405180910390fd5b6107ec610c04565b6040518060c001604052808381526020013373ffffffffffffffffffffffffffffffffffffffff1681526020016000151581526020017fffffffffffffffffffffffffffffffffffffffffffffffffffffffffffffffff81526020017fffffffffffffffffffffffffffffffffffffffffffffffffffffffffffffffff81526020016001151581525090506000600160003373ffffffffffffffffffffffffffffffffffffffff1673ffffffffffffffffffffffffffffffffffffffff168152602001908152602001600020905060018160020160006101000a81548160ff02191690831515021790555060018160010181905550806000018290806001815401808255809150509060018203906000526020600020906005020160009091929091909150600082015181600001908051906020019061092d929190610c54565b5060208201518160010160006101000a81548173ffffffffffffffffffffffffffffffffffffffff021916908373ffffffffffffffffffffffffffffffffffffffff16021790555060408201518160010160146101000a81548160ff021916908315150217905550606082015181600201556080820151816003015560a08201518160040160006101000a81548160ff021916908315150217905550505050816003846040518082805190602001908083835b60208310610a0357805182526020820191506020810190506020830392506109e0565b6001836020036101000a03801982511681845116808217855250505050505090500191505090815260200160405180910390206000820151816000019080519060200190610a52929190610c54565b5060208201518160010160006101000a81548173ffffffffffffffffffffffffffffffffffffffff021916908373ffffffffffffffffffffffffffffffffffffffff16021790555060408201518160010160146101000a81548160ff021916908315150217905550606082015181600201556080820151816003015560a08201518160040160006101000a81548160ff0219169083151502179055509050506002839080600181540180825580915050906001820390600052602060002001600090919290919091509080519060200190610b2e929190610cd4565b5050505050565b828054600181600116156101000203166002900490600052602060002090601f016020900481019282601f10610b6e5780548555610bab565b82800160010185558215610bab57600052602060002091601f016020900482015b82811115610baa578254825591600101919060010190610b8f565b5b509050610bb89190610d54565b5090565b50805460018160011615610100020316600290046000825580601f10610be25750610c01565b601f016020900490600052602060002090810190610c009190610d54565b5b50565b6040518060c0016040528060608152602001600073ffffffffffffffffffffffffffffffffffffffff16815260200160001515815260200160008152602001600081526020016000151581525090565b828054600181600116156101000203166002900490600052602060002090601f016020900481019282601f10610c9557805160ff1916838001178555610cc3565b82800160010185558215610cc3579182015b82811115610cc2578251825591602001919060010190610ca7565b5b509050610cd09190610d54565b5090565b828054600181600116156101000203166002900490600052602060002090601f016020900481019282601f10610d1557805160ff1916838001178555610d43565b82800160010185558215610d43579182015b82811115610d42578251825591602001919060010190610d27565b5b509050610d509190610d54565b5090565b610d7691905b80821115610d72576000816000905550600101610d5a565b5090565b9056fe46696e6765727072696e7420616c72656164792065786973747320696e2074686520646174616261736521a265627a7a723158207937e0cb90eeec7b98ce0a15b38a10d5ca62d5c6f1660d51802edef879a105b064736f6c63430005100032",
  "source": "// SPDX-License-Identifier: MIT\r\npragma solidity 0.5.16;\r\ncontract idDatabase{\r\n\r\n    struct Copyright {\r\n        string fingerprint;\r\n        address payable owner;\r\n        // string name;\r\n        // string comment;\r\n        bool isForSale;\r\n        uint price;\r\n        uint sellingIndex;\r\n        bool exists;\r\n    }\r\n\r\n    struct Account {\r\n        // string userName;\r\n        Copyright[] copyrights;\r\n        uint index; // to remember its index in the userAddresses array and avoid loops\r\n        bool exists;\r\n    }\r\n\r\n    address[] userAddresses;\r\n    mapping (address => Account) accounts;\r\n\r\n    string[] fingerprints;\r\n    mapping (string => Copyright) copyrights;\r\n\r\n    Copyright[] itemsForSale;\r\n    \r\n    function addCopyright (string memory _fingerprint) public {\r\n        require(copyrights[_fingerprint].exists == false, \"Fingerprint already exists in the database!\");\r\n\r\n        Copyright memory newCopyright = Copyright(_fingerprint, msg.sender, false, uint(-1), uint(-1), true);\r\n\r\n        // if (accounts[msg.sender].exists == false) {\r\n            // // Copyright[] storage copyrightsArray;\r\n            // Account memory newAccount;\r\n            // // newAccount.copyrights = new Copyright[];\r\n            // newAccount.copyrights.push(newCopyright);\r\n            // newAccount.index = 0;\r\n            // newAccount.exists = true;\r\n            // accounts[msg.sender] = newAccount;\r\n\r\n            // Account memory newAccount = Account({\r\n            //     copyrights: new Copyright[](0),\r\n            //     index: 1,\r\n            //     exists: true\r\n            // });\r\n\r\n            // newAccount.copyrights.push(newCopyright);\r\n            // Account storage account = new \r\n            // Copyright[] storage cp = new Copyright[](0);\r\n            // cp.push(newCopyright);\r\n            // Account memory account = Account({\r\n            //     copyrights: cp,\r\n            //     index: 1,\r\n            //     exists: true\r\n            // });\r\n            // account.index = 1;\r\n            // account.exists = true;\r\n\r\n            // accounts[msg.sender] = account;\r\n\r\n        \r\n\r\n        // } else {\r\n            // accounts[msg.sender].copyrights.push(newCopyright);\r\n        // }\r\n\r\n        Account storage account = accounts[msg.sender];\r\n        account.exists = true;\r\n        account.index = 1;\r\n        account.copyrights.push(newCopyright);\r\n\r\n        copyrights[_fingerprint] = newCopyright;\r\n        fingerprints.push(_fingerprint);\r\n    }\r\n\r\n    // function getCopyrights() public view returns (Copyright[] memory) {\r\n    //     // require(accounts[msg.sender] != 0, \"account with an address: \" + msg.sender + \" does not exist!\");\r\n    //     return accounts[msg.sender].copyrights;\r\n    // }\r\n\r\n    function sellCopyright(string memory _fingerprint, uint _price) private {\r\n        Copyright storage copyright = copyrights[_fingerprint];\r\n        require(copyright.exists == true, \"There is no such copyright saved on the blockchain\");\r\n        require(msg.sender == copyright.owner, \"Only the owner can call this function\");\r\n        require(copyright.isForSale == false,\r\n        \"This copyright is already for sale\");\r\n\r\n        copyright.isForSale = true;\r\n        copyright.price = _price;\r\n        copyright.sellingIndex = itemsForSale.length-1;\r\n\r\n        // todo ... accounts[msg.sender].copyrights ...\r\n\r\n        itemsForSale.push(copyright);\r\n    }\r\n\r\n    function buyCopyright(string memory _fingerprint) public payable {\r\n        Copyright storage copyright = copyrights[_fingerprint];\r\n        require(copyright.exists == true && copyrights[_fingerprint].isForSale == true,\r\n        \"Is not for sale!\");\r\n        require(msg.sender != copyright.owner, \"The owner can not be the buyer\");\r\n        require(msg.value >= copyright.price, \"The funds are not sufficient\");\r\n\r\n        copyright.owner.transfer(msg.value);\r\n        copyright.owner = msg.sender;\r\n\r\n        // todo delete the copyright from the sellers account\r\n        // todo add the copyright to the buyers account\r\n\r\n        // delete from itemsForSale\r\n        if(itemsForSale.length>1){ \r\n            uint index = copyright.sellingIndex;\r\n            itemsForSale[index]=itemsForSale[itemsForSale.length-1];\r\n        }\r\n        itemsForSale.pop();\r\n\r\n    }\r\n\r\n}",
  "sourcePath": "/mnt/d/Documents/Studia/Blockchain/Projekt/inflation/contracts/idDatabase.sol",
  "compiler": {
    "name": "solc",
    "version": "0.5.16+commit.9c3226ce.Emscripten.clang"
  },
  "schemaVersion": "3.2.1",
  "updatedAt": "2020-07-04T19:00:05.330Z",
  "networkType": "ethereum",
  "devdoc": {
    "methods": {}
  },
  "userdoc": {
    "methods": {}
  }
}