{
  "contractName": "PropertiesDB",
  "abi": [
    {
      "constant": false,
      "inputs": [
        {
          "internalType": "string",
          "name": "_fingerprint",
          "type": "string"
        },
        {
          "internalType": "string",
          "name": "_title",
          "type": "string"
        }
      ],
      "name": "addProperty",
      "outputs": [],
      "payable": false,
      "stateMutability": "nonpayable",
      "type": "function"
    },
    {
      "constant": true,
      "inputs": [],
      "name": "fetchProperties",
      "outputs": [
        {
          "components": [
            {
              "internalType": "string",
              "name": "fingerprint",
              "type": "string"
            },
            {
              "internalType": "string",
              "name": "title",
              "type": "string"
            }
          ],
          "internalType": "struct PropertiesDB.Property[]",
          "name": "",
          "type": "tuple[]"
        }
      ],
      "payable": false,
      "stateMutability": "view",
      "type": "function"
    },
    {
      "constant": true,
      "inputs": [],
      "name": "fetchPropertiesForSale",
      "outputs": [
        {
          "components": [
            {
              "internalType": "string",
              "name": "fingerprint",
              "type": "string"
            },
            {
              "internalType": "string",
              "name": "title",
              "type": "string"
            },
            {
              "internalType": "address",
              "name": "owner",
              "type": "address"
            },
            {
              "internalType": "uint256",
              "name": "price",
              "type": "uint256"
            }
          ],
          "internalType": "struct PropertiesDB.PropertyForSaleDTO[]",
          "name": "",
          "type": "tuple[]"
        }
      ],
      "payable": false,
      "stateMutability": "view",
      "type": "function"
    },
    {
      "constant": false,
      "inputs": [
        {
          "internalType": "string",
          "name": "_fingerprint",
          "type": "string"
        },
        {
          "internalType": "uint256",
          "name": "_price",
          "type": "uint256"
        }
      ],
      "name": "offerPropertyForSale",
      "outputs": [],
      "payable": false,
      "stateMutability": "nonpayable",
      "type": "function"
    },
    {
      "constant": false,
      "inputs": [
        {
          "internalType": "string",
          "name": "_fingerprint",
          "type": "string"
        }
      ],
      "name": "buyProperty",
      "outputs": [],
      "payable": true,
      "stateMutability": "payable",
      "type": "function"
    }
  ],
  "bytecode": "0x608060405234801561001057600080fd5b50612b48806100206000396000f3fe60806040526004361061004a5760003560e01c8063756969ae1461004f578063d87e0a8614610078578063e545248d146100a3578063ecbef164146100cc578063ed5ddfca146100e8575b600080fd5b34801561005b57600080fd5b50610076600480360361007191908101906121e2565b610113565b005b34801561008457600080fd5b5061008d610253565b60405161009a919061281a565b60405180910390f35b3480156100af57600080fd5b506100ca60048036036100c59190810190612176565b610433565b005b6100e660048036036100e19190810190612135565b6105a2565b005b3480156100f457600080fd5b506100fd6107fc565b60405161010a91906127f8565b60405180910390f35b61011c826109fd565b61015b576040517f08c379a00000000000000000000000000000000000000000000000000000000081526004016101529061289c565b60405180910390fd5b6101658233610c01565b6101a4576040517f08c379a000000000000000000000000000000000000000000000000000000000815260040161019b9061283c565b60405180910390fd5b6101ad82610e3a565b156101ed576040517f08c379a00000000000000000000000000000000000000000000000000000000081526004016101e4906128dc565b60405180910390fd5b600282908060018154018082558091505090600182039060005260206000200160009091929091909150908051906020019061022a929190611cf2565b50508060038360405161023d91906127ca565b9081526020016040518091039020819055505050565b6060600160003373ffffffffffffffffffffffffffffffffffffffff1673ffffffffffffffffffffffffffffffffffffffff168152602001908152602001600020805480602002602001604051908101604052809291908181526020016000905b8282101561042a5783829060005260206000209060020201604051806040016040529081600082018054600181600116156101000203166002900480601f0160208091040260200160405190810160405280929190818152602001828054600181600116156101000203166002900480156103705780601f1061034557610100808354040283529160200191610370565b820191906000526020600020905b81548152906001019060200180831161035357829003601f168201915b50505050508152602001600182018054600181600116156101000203166002900480601f0160208091040260200160405190810160405280929190818152602001828054600181600116156101000203166002900480156104125780601f106103e757610100808354040283529160200191610412565b820191906000526020600020905b8154815290600101906020018083116103f557829003601f168201915b505050505081525050815260200190600101906102b4565b50505050905090565b61043c826109fd565b1561047c576040517f08c379a0000000000000000000000000000000000000000000000000000000008152600401610473906128bc565b60405180910390fd5b60003390806001815401808255809150509060018203906000526020600020016000909192909190916101000a81548173ffffffffffffffffffffffffffffffffffffffff021916908373ffffffffffffffffffffffffffffffffffffffff16021790555050600160003373ffffffffffffffffffffffffffffffffffffffff1673ffffffffffffffffffffffffffffffffffffffff16815260200190815260200160002060405180604001604052808481526020018381525090806001815401808255809150509060018203906000526020600020906002020160009091929091909150600082015181600001908051906020019061057d929190611d72565b50602082015181600101908051906020019061059a929190611d72565b505050505050565b6105ab816109fd565b6105ea576040517f08c379a00000000000000000000000000000000000000000000000000000000081526004016105e19061285c565b60405180910390fd5b6105f381610e3a565b610632576040517f08c379a00000000000000000000000000000000000000000000000000000000081526004016106299061291c565b60405180910390fd5b61063c8133610c01565b1561067c576040517f08c379a0000000000000000000000000000000000000000000000000000000008152600401610673906128fc565b60405180910390fd5b61068581610f2f565b3410156106c7576040517f08c379a00000000000000000000000000000000000000000000000000000000081526004016106be9061287c565b60405180910390fd5b60006106d282610f2f565b905060006106df83611057565b90506106e9611df2565b6106f284611291565b9050600160003373ffffffffffffffffffffffffffffffffffffffff1673ffffffffffffffffffffffffffffffffffffffff1681526020019081526020016000208190806001815401808255809150509060018203906000526020600020906002020160009091929091909150600082015181600001908051906020019061077b929190611d72565b506020820151816001019080519060200190610798929190611d72565b505050506107a584611672565b6107af8483611827565b8173ffffffffffffffffffffffffffffffffffffffff166108fc849081150290604051600060405180830381858888f193505050501580156107f5573d6000803e3d6000fd5b5050505050565b60606000600280549050905060608160405190808252806020026020018201604052801561084457816020015b610831611e0c565b8152602001906001900390816108295790505b50905060008090505b6002805490508110156109f4576109136002828154811061086a57fe5b906000526020600020018054600181600116156101000203166002900480601f0160208091040260200160405190810160405280929190818152602001828054600181600116156101000203166002900480156109085780601f106108dd57610100808354040283529160200191610908565b820191906000526020600020905b8154815290600101906020018083116108eb57829003601f168201915b505050505033610c01565b6109e7576109cf6002828154811061092757fe5b906000526020600020018054600181600116156101000203166002900480601f0160208091040260200160405190810160405280929190818152602001828054600181600116156101000203166002900480156109c55780601f1061099a576101008083540402835291602001916109c5565b820191906000526020600020905b8154815290600101906020018083116109a857829003601f168201915b5050505050611c5d565b8282815181106109db57fe5b60200260200101819052505b808060010191505061084d565b50809250505090565b600080600090505b600080549050811015610bf65760008090505b60016000808481548110610a2857fe5b9060005260206000200160009054906101000a900473ffffffffffffffffffffffffffffffffffffffff1673ffffffffffffffffffffffffffffffffffffffff1673ffffffffffffffffffffffffffffffffffffffff16815260200190815260200160002080549050811015610be857610bcb60016000808581548110610aab57fe5b9060005260206000200160009054906101000a900473ffffffffffffffffffffffffffffffffffffffff1673ffffffffffffffffffffffffffffffffffffffff1673ffffffffffffffffffffffffffffffffffffffff1681526020019081526020016000208281548110610b1b57fe5b90600052602060002090600202016000018054600181600116156101000203166002900480601f016020809104026020016040519081016040528092919081815260200182805460018160011615610100020316600290048015610bc05780601f10610b9557610100808354040283529160200191610bc0565b820191906000526020600020905b815481529060010190602001808311610ba357829003601f168201915b505050505085611cd7565b15610bdb57600192505050610bfc565b8080600101915050610a18565b508080600101915050610a05565b50600090505b919050565b60006060600160008473ffffffffffffffffffffffffffffffffffffffff1673ffffffffffffffffffffffffffffffffffffffff168152602001908152602001600020805480602002602001604051908101604052809291908181526020016000905b82821015610dda5783829060005260206000209060020201604051806040016040529081600082018054600181600116156101000203166002900480601f016020809104026020016040519081016040528092919081815260200182805460018160011615610100020316600290048015610d205780601f10610cf557610100808354040283529160200191610d20565b820191906000526020600020905b815481529060010190602001808311610d0357829003601f168201915b50505050508152602001600182018054600181600116156101000203166002900480601f016020809104026020016040519081016040528092919081815260200182805460018160011615610100020316600290048015610dc25780601f10610d9757610100808354040283529160200191610dc2565b820191906000526020600020905b815481529060010190602001808311610da557829003601f168201915b50505050508152505081526020019060010190610c64565b50505050905060008090505b8151811015610e2d57610e10828281518110610dfe57fe5b60200260200101516000015186611cd7565b15610e2057600192505050610e34565b8080600101915050610de6565b5060009150505b92915050565b600080600090505b600280549050811015610f2457610f0860028281548110610e5f57fe5b906000526020600020018054600181600116156101000203166002900480601f016020809104026020016040519081016040528092919081815260200182805460018160011615610100020316600290048015610efd5780601f10610ed257610100808354040283529160200191610efd565b820191906000526020600020905b815481529060010190602001808311610ee057829003601f168201915b505050505084611cd7565b15610f17576001915050610f2a565b8080600101915050610e42565b50600090505b919050565b600080600090505b60028054905081101561104c57610ffd60028281548110610f5457fe5b906000526020600020018054600181600116156101000203166002900480601f016020809104026020016040519081016040528092919081815260200182805460018160011615610100020316600290048015610ff25780601f10610fc757610100808354040283529160200191610ff2565b820191906000526020600020905b815481529060010190602001808311610fd557829003601f168201915b505050505084611cd7565b1561103f5760036002828154811061101157fe5b9060005260206000200160405161102891906127e1565b908152602001604051809103902054915050611052565b8080600101915050610f37565b50600090505b919050565b600080600090505b6000805490508110156112865760008090505b6001600080848154811061108257fe5b9060005260206000200160009054906101000a900473ffffffffffffffffffffffffffffffffffffffff1673ffffffffffffffffffffffffffffffffffffffff1673ffffffffffffffffffffffffffffffffffffffff16815260200190815260200160002080549050811015611278576112256001600080858154811061110557fe5b9060005260206000200160009054906101000a900473ffffffffffffffffffffffffffffffffffffffff1673ffffffffffffffffffffffffffffffffffffffff1673ffffffffffffffffffffffffffffffffffffffff168152602001908152602001600020828154811061117557fe5b90600052602060002090600202016000018054600181600116156101000203166002900480601f01602080910402602001604051908101604052809291908181526020018280546001816001161561010002031660029004801561121a5780601f106111ef5761010080835404028352916020019161121a565b820191906000526020600020905b8154815290600101906020018083116111fd57829003601f168201915b505050505085611cd7565b1561126b576000828154811061123757fe5b9060005260206000200160009054906101000a900473ffffffffffffffffffffffffffffffffffffffff169250505061128c565b8080600101915050611072565b50808060010191505061105f565b50600090505b919050565b611299611df2565b60008090505b60008054905081101561166b5760008090505b600160008084815481106112c257fe5b9060005260206000200160009054906101000a900473ffffffffffffffffffffffffffffffffffffffff1673ffffffffffffffffffffffffffffffffffffffff1673ffffffffffffffffffffffffffffffffffffffff1681526020019081526020016000208054905081101561165d576114656001600080858154811061134557fe5b9060005260206000200160009054906101000a900473ffffffffffffffffffffffffffffffffffffffff1673ffffffffffffffffffffffffffffffffffffffff1673ffffffffffffffffffffffffffffffffffffffff16815260200190815260200160002082815481106113b557fe5b90600052602060002090600202016000018054600181600116156101000203166002900480601f01602080910402602001604051908101604052809291908181526020018280546001816001161561010002031660029004801561145a5780601f1061142f5761010080835404028352916020019161145a565b820191906000526020600020905b81548152906001019060200180831161143d57829003601f168201915b505050505085611cd7565b15611650576001600080848154811061147a57fe5b9060005260206000200160009054906101000a900473ffffffffffffffffffffffffffffffffffffffff1673ffffffffffffffffffffffffffffffffffffffff1673ffffffffffffffffffffffffffffffffffffffff16815260200190815260200160002081815481106114ea57fe5b9060005260206000209060020201604051806040016040529081600082018054600181600116156101000203166002900480601f01602080910402602001604051908101604052809291908181526020018280546001816001161561010002031660029004801561159c5780601f106115715761010080835404028352916020019161159c565b820191906000526020600020905b81548152906001019060200180831161157f57829003601f168201915b50505050508152602001600182018054600181600116156101000203166002900480601f01602080910402602001604051908101604052809291908181526020018280546001816001161561010002031660029004801561163e5780601f106116135761010080835404028352916020019161163e565b820191906000526020600020905b81548152906001019060200180831161162157829003601f168201915b5050505050815250509250505061166d565b80806001019150506112b2565b50808060010191505061129f565b505b919050565b600080905060008090505b600280549050811015611759576117436002828154811061169a57fe5b906000526020600020018054600181600116156101000203166002900480601f0160208091040260200160405190810160405280929190818152602001828054600181600116156101000203166002900480156117385780601f1061170d57610100808354040283529160200191611738565b820191906000526020600020905b81548152906001019060200180831161171b57829003601f168201915b505050505084611cd7565b1561174c578091505b808060010191505061167d565b50600280549050811061176c5750611824565b60008190505b6001600280549050038110156117e0576002600182018154811061179257fe5b90600052602060002001600282815481106117a957fe5b9060005260206000200190805460018160011615610100020316600290046117d2929190611e4a565b508080600101915050611772565b506002600160028054905003815481106117f657fe5b90600052602060002001600061180c9190611ed1565b60028054809190600190036118219190611f19565b50505b50565b600080905060008090505b600160008473ffffffffffffffffffffffffffffffffffffffff1673ffffffffffffffffffffffffffffffffffffffff1681526020019081526020016000208054905081101561198f57611979600160008573ffffffffffffffffffffffffffffffffffffffff1673ffffffffffffffffffffffffffffffffffffffff16815260200190815260200160002082815481106118c957fe5b90600052602060002090600202016000018054600181600116156101000203166002900480601f01602080910402602001604051908101604052809291908181526020018280546001816001161561010002031660029004801561196e5780601f106119435761010080835404028352916020019161196e565b820191906000526020600020905b81548152906001019060200180831161195157829003601f168201915b505050505085611cd7565b15611982578091505b8080600101915050611832565b50600160008373ffffffffffffffffffffffffffffffffffffffff1673ffffffffffffffffffffffffffffffffffffffff1681526020019081526020016000208054905081106119df5750611c59565b60008190505b60018060008573ffffffffffffffffffffffffffffffffffffffff1673ffffffffffffffffffffffffffffffffffffffff1681526020019081526020016000208054905003811015611b4457600160008473ffffffffffffffffffffffffffffffffffffffff1673ffffffffffffffffffffffffffffffffffffffff1681526020019081526020016000206001820181548110611a7e57fe5b9060005260206000209060020201600160008573ffffffffffffffffffffffffffffffffffffffff1673ffffffffffffffffffffffffffffffffffffffff1681526020019081526020016000208281548110611ad657fe5b906000526020600020906002020160008201816000019080546001816001161561010002031660029004611b0b929190611f45565b5060018201816001019080546001816001161561010002031660029004611b33929190611f45565b5090505080806001019150506119e5565b50600160008373ffffffffffffffffffffffffffffffffffffffff1673ffffffffffffffffffffffffffffffffffffffff16815260200190815260200160002060018060008573ffffffffffffffffffffffffffffffffffffffff1673ffffffffffffffffffffffffffffffffffffffff168152602001908152602001600020805490500381548110611bd357fe5b906000526020600020906002020160008082016000611bf29190611ed1565b600182016000611c029190611ed1565b5050600160008373ffffffffffffffffffffffffffffffffffffffff1673ffffffffffffffffffffffffffffffffffffffff168152602001908152602001600020805480919060019003611c569190611fcc565b50505b5050565b611c65611ffe565b611c6d611df2565b611c7683611291565b90506000611c8384611057565b90506000611c9085610f2f565b90506040518060800160405280868152602001846020015181526020018373ffffffffffffffffffffffffffffffffffffffff168152602001828152509350505050919050565b60008180519060200120838051906020012014905092915050565b828054600181600116156101000203166002900490600052602060002090601f016020900481019282601f10611d3357805160ff1916838001178555611d61565b82800160010185558215611d61579182015b82811115611d60578251825591602001919060010190611d45565b5b509050611d6e919061203c565b5090565b828054600181600116156101000203166002900490600052602060002090601f016020900481019282601f10611db357805160ff1916838001178555611de1565b82800160010185558215611de1579182015b82811115611de0578251825591602001919060010190611dc5565b5b509050611dee919061203c565b5090565b604051806040016040528060608152602001606081525090565b60405180608001604052806060815260200160608152602001600073ffffffffffffffffffffffffffffffffffffffff168152602001600081525090565b828054600181600116156101000203166002900490600052602060002090601f016020900481019282601f10611e835780548555611ec0565b82800160010185558215611ec057600052602060002091601f016020900482015b82811115611ebf578254825591600101919060010190611ea4565b5b509050611ecd919061203c565b5090565b50805460018160011615610100020316600290046000825580601f10611ef75750611f16565b601f016020900490600052602060002090810190611f15919061203c565b5b50565b815481835581811115611f4057818360005260206000209182019101611f3f9190612061565b5b505050565b828054600181600116156101000203166002900490600052602060002090601f016020900481019282601f10611f7e5780548555611fbb565b82800160010185558215611fbb57600052602060002091601f016020900482015b82811115611fba578254825591600101919060010190611f9f565b5b509050611fc8919061203c565b5090565b815481835581811115611ff957600202816002028360005260206000209182019101611ff8919061208d565b5b505050565b60405180608001604052806060815260200160608152602001600073ffffffffffffffffffffffffffffffffffffffff168152602001600081525090565b61205e91905b8082111561205a576000816000905550600101612042565b5090565b90565b61208a91905b80821115612086576000818161207d9190611ed1565b50600101612067565b5090565b90565b6120c991905b808211156120c557600080820160006120ac9190611ed1565b6001820160006120bc9190611ed1565b50600201612093565b5090565b90565b600082601f8301126120dd57600080fd5b81356120f06120eb82612969565b61293c565b9150808252602083016020830185838301111561210c57600080fd5b612117838284612a9b565b50505092915050565b60008135905061212f81612aee565b92915050565b60006020828403121561214757600080fd5b600082013567ffffffffffffffff81111561216157600080fd5b61216d848285016120cc565b91505092915050565b6000806040838503121561218957600080fd5b600083013567ffffffffffffffff8111156121a357600080fd5b6121af858286016120cc565b925050602083013567ffffffffffffffff8111156121cc57600080fd5b6121d8858286016120cc565b9150509250929050565b600080604083850312156121f557600080fd5b600083013567ffffffffffffffff81111561220f57600080fd5b61221b858286016120cc565b925050602061222c85828601612120565b9150509250929050565b6000612242838361270d565b905092915050565b60006122568383612777565b905092915050565b61226781612a5f565b82525050565b6000612278826129ca565b6122828185612a10565b93508360208202850161229485612995565b8060005b858110156122d057848403895281516122b18582612236565b94506122bc836129f6565b925060208a01995050600181019050612298565b50829750879550505050505092915050565b60006122ed826129d5565b6122f78185612a21565b935083602082028501612309856129a5565b8060005b858110156123455784840389528151612326858261224a565b945061233183612a03565b925060208a0199505060018101905061230d565b50829750879550505050505092915050565b6000612362826129eb565b61236c8185612a54565b935061237c818560208601612aaa565b80840191505092915050565b6000612393826129e0565b61239d8185612a32565b93506123ad818560208601612aaa565b6123b681612add565b840191505092915050565b6000815460018116600081146123de576001811461240357612447565b607f60028304166123ef8187612a54565b955060ff1983168652808601935050612447565b600282046124118187612a54565b955061241c856129b5565b60005b8281101561243e5781548189015260018201915060208101905061241f565b82880195505050505b505092915050565b600061245c602583612a43565b91507f4f6e6c7920746865206f776e65722063616e2063616c6c20746869732066756e60008301527f6374696f6e0000000000000000000000000000000000000000000000000000006020830152604082019050919050565b60006124c2603183612a43565b91507f5468657265206973206e6f20737563682070726f70657274792073617665642060008301527f6f6e2074686520626c6f636b636861696e0000000000000000000000000000006020830152604082019050919050565b6000612528601c83612a43565b91507f5468652066756e647320617265206e6f742073756666696369656e74000000006000830152602082019050919050565b6000612568603283612a43565b91507f5468657265206973206e6f20737563682070726f70657272747920736176656460008301527f206f6e2074686520626c6f636b636861696e00000000000000000000000000006020830152604082019050919050565b60006125ce602883612a43565b91507f50726f706572747920616c72656164792065786973747320696e20746865206460008301527f61746162617365210000000000000000000000000000000000000000000000006020830152604082019050919050565b6000612634602183612a43565b91507f546869732070726f706572747920697320616c726561647920666f722073616c60008301527f65000000000000000000000000000000000000000000000000000000000000006020830152604082019050919050565b600061269a601e83612a43565b91507f546865206f776e65722063616e206e6f742062652074686520627579657200006000830152602082019050919050565b60006126da601d83612a43565b91507f546869732070726f7065727479206973206e6f7420666f722073616c650000006000830152602082019050919050565b6000608083016000830151848203600086015261272a8282612388565b915050602083015184820360208601526127448282612388565b9150506040830151612759604086018261225e565b50606083015161276c60608601826127bb565b508091505092915050565b600060408301600083015184820360008601526127948282612388565b915050602083015184820360208601526127ae8282612388565b9150508091505092915050565b6127c481612a91565b82525050565b60006127d68284612357565b915081905092915050565b60006127ed82846123c1565b915081905092915050565b60006020820190508181036000830152612812818461226d565b905092915050565b6000602082019050818103600083015261283481846122e2565b905092915050565b600060208201905081810360008301526128558161244f565b9050919050565b60006020820190508181036000830152612875816124b5565b9050919050565b600060208201905081810360008301526128958161251b565b9050919050565b600060208201905081810360008301526128b58161255b565b9050919050565b600060208201905081810360008301526128d5816125c1565b9050919050565b600060208201905081810360008301526128f581612627565b9050919050565b600060208201905081810360008301526129158161268d565b9050919050565b60006020820190508181036000830152612935816126cd565b9050919050565b6000604051905081810181811067ffffffffffffffff8211171561295f57600080fd5b8060405250919050565b600067ffffffffffffffff82111561298057600080fd5b601f19601f8301169050602081019050919050565b6000819050602082019050919050565b6000819050602082019050919050565b60008190508160005260206000209050919050565b600081519050919050565b600081519050919050565b600081519050919050565b600081519050919050565b6000602082019050919050565b6000602082019050919050565b600082825260208201905092915050565b600082825260208201905092915050565b600082825260208201905092915050565b600082825260208201905092915050565b600081905092915050565b6000612a6a82612a71565b9050919050565b600073ffffffffffffffffffffffffffffffffffffffff82169050919050565b6000819050919050565b82818337600083830152505050565b60005b83811015612ac8578082015181840152602081019050612aad565b83811115612ad7576000848401525b50505050565b6000601f19601f8301169050919050565b612af781612a91565b8114612b0257600080fd5b5056fea365627a7a72315820687327e15515622e5bfeb9689f25cd9777b429b46ba0d58a92ab363f05d34cd16c6578706572696d656e74616cf564736f6c63430005100040",
  "source": "// SPDX-License-Identifier: MIT\npragma solidity 0.5.16;\npragma experimental ABIEncoderV2;\n\ncontract PropertiesDB {\n\n    struct Property {\n        string fingerprint;\n        string title;\n    }\n    \n    struct PropertyForSaleDTO {\n        string fingerprint;\n        string title;\n        address owner;\n        uint price;\n    }\n    \n    \n    address[] propertyOwners;\n    mapping (address => Property[]) properties;\n    \n    string[] propertiesForSale;\n    mapping (string => uint) salePrices;\n    \n    /* Actions on the database */\n    \n    function addProperty (string memory _fingerprint, string memory _title) public {\n        require(!isPropertyPresent(_fingerprint), \"Property already exists in the database!\");\n\n        propertyOwners.push(msg.sender);\n        properties[msg.sender].push(Property(_fingerprint, _title));\n    }\n    \n    function fetchProperties() public view returns (Property[] memory){\n        return properties[msg.sender];\n    }\n    \n    function fetchPropertiesForSale() public view returns (PropertyForSaleDTO[] memory) {\n        uint propertiesForSaleLength = propertiesForSale.length;\n        PropertyForSaleDTO[] memory _propertiesForSale = new PropertyForSaleDTO[](propertiesForSaleLength); //specify exact array length\n        for (uint i= 0; i < propertiesForSale.length; i++) {\n            if (!isOwner(propertiesForSale[i], msg.sender)) {\n                _propertiesForSale[i] = createPropertyForSaleDto(propertiesForSale[i]);\n            }\n        }\n        return _propertiesForSale;\n    }\n\n    function offerPropertyForSale(string memory _fingerprint, uint _price) public {\n        require(isPropertyPresent(_fingerprint), \"There is no such properrty saved on the blockchain\");\n        require(isOwner(_fingerprint, msg.sender), \"Only the owner can call this function\");\n        require(!isPropertyForSale(_fingerprint), \"This property is already for sale\");\n\n        propertiesForSale.push(_fingerprint);\n        salePrices[_fingerprint] = _price;\n    }\n    \n    function buyProperty(string memory _fingerprint) public payable {\n        require(isPropertyPresent(_fingerprint), \"There is no such property saved on the blockchain\");\n        require(isPropertyForSale(_fingerprint), \"This property is not for sale\");\n        require(!isOwner(_fingerprint, msg.sender), \"The owner can not be the buyer\");\n        require(msg.value >= getPropertyPrice(_fingerprint), \"The funds are not sufficient\");\n        \n        uint price = getPropertyPrice(_fingerprint);\n        address payable owner = address(uint160(getPropertyOwner(_fingerprint)));\n        Property memory property =  getProperty(_fingerprint);\n        \n        properties[msg.sender].push(property);\n        deleteFromPropertiesForSale(_fingerprint);\n        deleteFromProperties(_fingerprint, owner);\n        owner.transfer(price);\n    }\n    \n\n    \n    /* Queries on the database */\n    \n    function isOwner (string memory _fingerprint, address userAddress) private view returns (bool) {\n        Property[] memory userProperties = properties[userAddress];\n        for (uint i = 0; i < userProperties.length; i++) {\n          if (areStringsEqual(userProperties[i].fingerprint, _fingerprint)) return true;\n        }\n        return false;\n    }\n    function createPropertyForSaleDto(string memory fingerprint) private view returns (PropertyForSaleDTO memory) {\n        Property memory property = getProperty(fingerprint);\n        address owner = getPropertyOwner(fingerprint);\n        uint price = getPropertyPrice(fingerprint);\n        return PropertyForSaleDTO(fingerprint, property.title, owner, price);\n    }\n    function isPropertyForSale (string memory _fingerprint) private view returns (bool) {\n        for (uint i = 0; i < propertiesForSale.length; i++) {\n            if (areStringsEqual(propertiesForSale[i], _fingerprint)) return true;\n        }\n        return false;\n    }\n    function isPropertyPresent (string memory _fingerprint) private view returns (bool) {\n        for (uint i = 0; i < propertyOwners.length; i++) {\n          for (uint j = 0; j < properties[propertyOwners[i]].length; j++) {\n              if (areStringsEqual(properties[propertyOwners[i]][j].fingerprint, _fingerprint)) return true;\n          }\n        }\n        return false;\n    }\n    function areStringsEqual (string memory _string1, string memory _string2) private pure returns (bool) {\n        return keccak256(bytes(_string1)) == keccak256(bytes(_string2));\n    }\n\n    function getProperty(string memory _fingerprint)  private view returns (Property memory) {\n        for (uint i = 0; i < propertyOwners.length; i++) {\n            for (uint j = 0; j < properties[propertyOwners[i]].length; j++) {\n                if (areStringsEqual(properties[propertyOwners[i]][j].fingerprint, _fingerprint)) {\n                    return properties[propertyOwners[i]][j];\n                }\n            }\n        }\n    }\n    function getPropertyOwner (string memory _fingerprint) private view returns (address) {\n        for (uint i = 0; i < propertyOwners.length; i++) {\n            for (uint j = 0; j < properties[propertyOwners[i]].length; j++) {\n                if (areStringsEqual(properties[propertyOwners[i]][j].fingerprint, _fingerprint)) return propertyOwners[i];\n            }\n        }\n        return address(0);\n    }\n    function getPropertyPrice (string memory _fingerprint) private view returns (uint) {\n        for (uint i = 0; i < propertiesForSale.length; i++) {\n            if (areStringsEqual(propertiesForSale[i], _fingerprint)) {\n                return salePrices[propertiesForSale[i]];\n            }\n        }\n        return 0;\n    }\n    \n    function deleteFromPropertiesForSale(string memory _fingerprint)  private {\n        uint index = 0;\n        for (uint i = 0; i < propertiesForSale.length; i++) {\n            if (areStringsEqual(propertiesForSale[i], _fingerprint)) {\n                index = i;\n            }\n        }\n\n        if (index >= propertiesForSale.length) return;\n\n        for (uint i = index; i < propertiesForSale.length-1; i++){\n            propertiesForSale[i] = propertiesForSale[i+1];\n        }\n        delete propertiesForSale[propertiesForSale.length-1];\n        propertiesForSale.length--;\n    }\n\n    function deleteFromProperties(string memory _fingerprint, address _owner)  private {\n        uint index = 0;\n        for (uint i = 0; i < properties[_owner].length; i++) {\n            if (areStringsEqual(properties[_owner][i].fingerprint, _fingerprint)) {\n                index = i;\n            }\n        }\n\n        if (index >= properties[_owner].length) return;\n\n        for (uint i = index; i<properties[_owner].length-1; i++){\n            properties[_owner][i] = properties[_owner][i+1];\n        }\n        delete properties[_owner][properties[_owner].length-1];\n        properties[_owner].length--;\n    }\n    \n    \n}",
  "sourcePath": "/Users/filiptwardzik/inflation/contracts/PropertiesDB.sol",
  "compiler": {
    "name": "solc",
    "version": "0.5.16+commit.9c3226ce.Emscripten.clang"
  },
  "schemaVersion": "3.2.1",
  "updatedAt": "2020-07-05T13:24:39.036Z",
  "networkType": "ethereum",
  "devdoc": {
    "methods": {}
  },
  "userdoc": {
    "methods": {}
  }
}