{
  "contractName": "idDatabase",
  "abi": [
    {
      "constant": false,
      "inputs": [
        {
          "internalType": "string",
          "name": "_fingerprint",
          "type": "string"
        }
      ],
      "name": "addCopyright",
      "outputs": [],
      "payable": false,
      "stateMutability": "nonpayable",
      "type": "function"
    },
    {
      "constant": false,
      "inputs": [
        {
          "internalType": "string",
          "name": "_fingerprint",
          "type": "string"
        }
      ],
      "name": "buyCopyright",
      "outputs": [],
      "payable": true,
      "stateMutability": "payable",
      "type": "function"
    }
  ],
  "bytecode": "0x608060405234801561001057600080fd5b50610dac806100206000396000f3fe6080604052600436106100295760003560e01c806320c4b78c1461002e5780636e298d35146100e9575b600080fd5b6100e76004803603602081101561004457600080fd5b810190808035906020019064010000000081111561006157600080fd5b82018360208201111561007357600080fd5b8035906020019184600183028401116401000000008311171561009557600080fd5b91908080601f016020809104026020016040519081016040528093929190818152602001838380828437600081840152601f19601f8201169050808301925050505050505091929192905050506101b1565b005b3480156100f557600080fd5b506101af6004803603602081101561010c57600080fd5b810190808035906020019064010000000081111561012957600080fd5b82018360208201111561013b57600080fd5b8035906020019184600183028401116401000000008311171561015d57600080fd5b91908080601f016020809104026020016040519081016040528093929190818152602001838380828437600081840152601f19601f82011690508083019250505050505050919291929050505061070e565b005b60006003826040518082805190602001908083835b602083106101e957805182526020820191506020810190506020830392506101c6565b6001836020036101000a03801982511681845116808217855250505050505090500191505090815260200160405180910390209050600115158160040160009054906101000a900460ff1615151480156102c05750600115156003836040518082805190602001908083835b602083106102785780518252602082019150602081019050602083039250610255565b6001836020036101000a038019825116818451168082178552505050505050905001915050908152602001604051809103902060010160149054906101000a900460ff161515145b610332576040517f08c379a00000000000000000000000000000000000000000000000000000000081526004018080602001828103825260108152602001807f4973206e6f7420666f722073616c65210000000000000000000000000000000081525060200191505060405180910390fd5b8060010160009054906101000a900473ffffffffffffffffffffffffffffffffffffffff1673ffffffffffffffffffffffffffffffffffffffff163373ffffffffffffffffffffffffffffffffffffffff1614156103f8576040517f08c379a000000000000000000000000000000000000000000000000000000000815260040180806020018281038252601e8152602001807f546865206f776e65722063616e206e6f7420626520746865206275796572000081525060200191505060405180910390fd5b8060020154341015610472576040517f08c379a000000000000000000000000000000000000000000000000000000000815260040180806020018281038252601c8152602001807f5468652066756e647320617265206e6f742073756666696369656e740000000081525060200191505060405180910390fd5b8060010160009054906101000a900473ffffffffffffffffffffffffffffffffffffffff1673ffffffffffffffffffffffffffffffffffffffff166108fc349081150290604051600060405180830381858888f193505050501580156104dc573d6000803e3d6000fd5b50338160010160006101000a81548173ffffffffffffffffffffffffffffffffffffffff021916908373ffffffffffffffffffffffffffffffffffffffff160217905550600160048054905011156106775760008160030154905060046001600480549050038154811061054c57fe5b90600052602060002090600502016004828154811061056757fe5b90600052602060002090600502016000820181600001908054600181600116156101000203166002900461059c929190610b08565b506001820160009054906101000a900473ffffffffffffffffffffffffffffffffffffffff168160010160006101000a81548173ffffffffffffffffffffffffffffffffffffffff021916908373ffffffffffffffffffffffffffffffffffffffff1602179055506001820160149054906101000a900460ff168160010160146101000a81548160ff02191690831515021790555060028201548160020155600382015481600301556004820160009054906101000a900460ff168160040160006101000a81548160ff021916908315150217905550905050505b600480548061068257fe5b6001900381819060005260206000209060050201600080820160006106a79190610b8f565b6001820160006101000a81549073ffffffffffffffffffffffffffffffffffffffff02191690556001820160146101000a81549060ff0219169055600282016000905560038201600090556004820160006101000a81549060ff0219169055505090555050565b600015156003826040518082805190602001908083835b602083106107485780518252602082019150602081019050602083039250610725565b6001836020036101000a038019825116818451168082178552505050505050905001915050908152602001604051809103902060040160009054906101000a900460ff161515146107e4576040517f08c379a000000000000000000000000000000000000000000000000000000000815260040180806020018281038252602b815260200180610d4d602b913960400191505060405180910390fd5b6107ec610bd7565b6040518060c001604052808381526020013373ffffffffffffffffffffffffffffffffffffffff1681526020016000151581526020017fffffffffffffffffffffffffffffffffffffffffffffffffffffffffffffffff81526020017fffffffffffffffffffffffffffffffffffffffffffffffffffffffffffffffff8152602001600115158152509050600160003373ffffffffffffffffffffffffffffffffffffffff1673ffffffffffffffffffffffffffffffffffffffff16815260200190815260200160002060000181908060018154018082558091505090600182039060005260206000209060050201600090919290919091506000820151816000019080519060200190610901929190610c27565b5060208201518160010160006101000a81548173ffffffffffffffffffffffffffffffffffffffff021916908373ffffffffffffffffffffffffffffffffffffffff16021790555060408201518160010160146101000a81548160ff021916908315150217905550606082015181600201556080820151816003015560a08201518160040160006101000a81548160ff021916908315150217905550505050806003836040518082805190602001908083835b602083106109d757805182526020820191506020810190506020830392506109b4565b6001836020036101000a03801982511681845116808217855250505050505090500191505090815260200160405180910390206000820151816000019080519060200190610a26929190610c27565b5060208201518160010160006101000a81548173ffffffffffffffffffffffffffffffffffffffff021916908373ffffffffffffffffffffffffffffffffffffffff16021790555060408201518160010160146101000a81548160ff021916908315150217905550606082015181600201556080820151816003015560a08201518160040160006101000a81548160ff0219169083151502179055509050506002829080600181540180825580915050906001820390600052602060002001600090919290919091509080519060200190610b02929190610ca7565b50505050565b828054600181600116156101000203166002900490600052602060002090601f016020900481019282601f10610b415780548555610b7e565b82800160010185558215610b7e57600052602060002091601f016020900482015b82811115610b7d578254825591600101919060010190610b62565b5b509050610b8b9190610d27565b5090565b50805460018160011615610100020316600290046000825580601f10610bb55750610bd4565b601f016020900490600052602060002090810190610bd39190610d27565b5b50565b6040518060c0016040528060608152602001600073ffffffffffffffffffffffffffffffffffffffff16815260200160001515815260200160008152602001600081526020016000151581525090565b828054600181600116156101000203166002900490600052602060002090601f016020900481019282601f10610c6857805160ff1916838001178555610c96565b82800160010185558215610c96579182015b82811115610c95578251825591602001919060010190610c7a565b5b509050610ca39190610d27565b5090565b828054600181600116156101000203166002900490600052602060002090601f016020900481019282601f10610ce857805160ff1916838001178555610d16565b82800160010185558215610d16579182015b82811115610d15578251825591602001919060010190610cfa565b5b509050610d239190610d27565b5090565b610d4991905b80821115610d45576000816000905550600101610d2d565b5090565b9056fe46696e6765727072696e7420616c72656164792065786973747320696e2074686520646174616261736521a265627a7a723158209d310107832c06d9567df7037b996dd97fd4189f609ec8538897d442ef14cc8564736f6c63430005100032",
  "source": "// SPDX-License-Identifier: MIT\r\npragma solidity 0.5.16;\r\ncontract idDatabase{\r\n\r\n    struct Account {\r\n        // string userName;\r\n        Copyright[] copyrights;\r\n        uint index; // to remember its index in the userAddresses array and avoid loops\r\n    }\r\n\r\n    struct Copyright {\r\n        string fingerprint;\r\n        address payable owner;\r\n        // string name;\r\n        // string comment;\r\n        bool isForSale;\r\n        uint price;\r\n        uint sellingIndex;\r\n        bool exists;\r\n    }\r\n\r\n    address[] userAddresses;\r\n    mapping (address => Account) accounts;\r\n\r\n    string[] fingerprints;\r\n    mapping (string => Copyright) copyrights;\r\n\r\n    Copyright[] itemsForSale;\r\n    \r\n    function addCopyright (string memory _fingerprint) public {\r\n        require(copyrights[_fingerprint].exists == false, \"Fingerprint already exists in the database!\");\r\n\r\n        Copyright memory newCopyright = Copyright(_fingerprint, msg.sender, false, uint(-1), uint(-1), true);\r\n        accounts[msg.sender].copyrights.push(newCopyright);\r\n\r\n        copyrights[_fingerprint] = newCopyright;\r\n        fingerprints.push(_fingerprint);\r\n    }\r\n\r\n    function sellCopyright(string memory _fingerprint, uint _price) private {\r\n        Copyright storage copyright = copyrights[_fingerprint];\r\n        require(copyright.exists == true, \"There is no such copyright saved on the blockchain\");\r\n        require(msg.sender == copyright.owner, \"Only the owner can call this function\");\r\n        require(copyright.isForSale == false,\r\n        \"This copyright is already for sale\");\r\n\r\n        copyright.isForSale = true;\r\n        copyright.price = _price;\r\n        copyright.sellingIndex = itemsForSale.length-1;\r\n\r\n        // todo ... accounts[msg.sender].copyrights ...\r\n\r\n        itemsForSale.push(copyright);\r\n    }\r\n\r\n    function buyCopyright(string memory _fingerprint) public payable {\r\n        Copyright storage copyright = copyrights[_fingerprint];\r\n        require(copyright.exists == true && copyrights[_fingerprint].isForSale == true,\r\n        \"Is not for sale!\");\r\n        require(msg.sender != copyright.owner, \"The owner can not be the buyer\");\r\n        require(msg.value >= copyright.price, \"The funds are not sufficient\");\r\n\r\n        copyright.owner.transfer(msg.value);\r\n        copyright.owner = msg.sender;\r\n\r\n        // todo delete the copyright from the sellers account\r\n        // todo add the copyright to the buyers account\r\n\r\n        // delete from itemsForSale\r\n        if(itemsForSale.length>1){ \r\n            uint index = copyright.sellingIndex;\r\n            itemsForSale[index]=itemsForSale[itemsForSale.length-1];\r\n        }\r\n        itemsForSale.pop();\r\n\r\n    }\r\n\r\n}",
  "sourcePath": "/mnt/d/Documents/Studia/Blockchain/Projekt/inflation/contracts/idDatabase.sol",
  "compiler": {
    "name": "solc",
    "version": "0.5.16+commit.9c3226ce.Emscripten.clang"
  },
  "schemaVersion": "3.2.1",
  "updatedAt": "2020-07-03T16:30:32.153Z",
  "networkType": "ethereum",
  "devdoc": {
    "methods": {}
  },
  "userdoc": {
    "methods": {}
  }
}