{
  "contractName": "Database",
  "abi": [
    {
      "constant": true,
      "inputs": [
        {
          "internalType": "string",
          "name": "",
          "type": "string"
        }
      ],
      "name": "hashDatabase",
      "outputs": [
        {
          "internalType": "address",
          "name": "",
          "type": "address"
        }
      ],
      "payable": false,
      "stateMutability": "view",
      "type": "function"
    },
    {
      "constant": true,
      "inputs": [
        {
          "internalType": "address",
          "name": "",
          "type": "address"
        },
        {
          "internalType": "uint256",
          "name": "",
          "type": "uint256"
        }
      ],
      "name": "ownerToHashes",
      "outputs": [
        {
          "internalType": "contract Property",
          "name": "",
          "type": "address"
        }
      ],
      "payable": false,
      "stateMutability": "view",
      "type": "function"
    },
    {
      "constant": true,
      "inputs": [],
      "name": "getItemsForSale",
      "outputs": [
        {
          "internalType": "contract Property[]",
          "name": "",
          "type": "address[]"
        }
      ],
      "payable": false,
      "stateMutability": "view",
      "type": "function"
    },
    {
      "constant": false,
      "inputs": [
        {
          "internalType": "string",
          "name": "hash",
          "type": "string"
        }
      ],
      "name": "addProperty",
      "outputs": [
        {
          "internalType": "contract Property",
          "name": "",
          "type": "address"
        }
      ],
      "payable": true,
      "stateMutability": "payable",
      "type": "function"
    },
    {
      "constant": false,
      "inputs": [
        {
          "internalType": "string",
          "name": "_hash",
          "type": "string"
        }
      ],
      "name": "buyProperty",
      "outputs": [],
      "payable": true,
      "stateMutability": "payable",
      "type": "function"
    },
    {
      "constant": false,
      "inputs": [
        {
          "internalType": "string",
          "name": "_hash",
          "type": "string"
        },
        {
          "internalType": "uint256",
          "name": "price",
          "type": "uint256"
        }
      ],
      "name": "startSellingProperty",
      "outputs": [],
      "payable": false,
      "stateMutability": "nonpayable",
      "type": "function"
    },
    {
      "constant": false,
      "inputs": [
        {
          "internalType": "string",
          "name": "_hash",
          "type": "string"
        }
      ],
      "name": "stopSellingProperty",
      "outputs": [],
      "payable": false,
      "stateMutability": "nonpayable",
      "type": "function"
    },
    {
      "constant": true,
      "inputs": [
        {
          "internalType": "string",
          "name": "_hash",
          "type": "string"
        }
      ],
      "name": "getOwnerOfHash",
      "outputs": [
        {
          "internalType": "address",
          "name": "",
          "type": "address"
        }
      ],
      "payable": false,
      "stateMutability": "view",
      "type": "function"
    },
    {
      "constant": true,
      "inputs": [],
      "name": "getMyProperties",
      "outputs": [
        {
          "internalType": "contract Property[]",
          "name": "",
          "type": "address[]"
        }
      ],
      "payable": false,
      "stateMutability": "view",
      "type": "function"
    }
  ],
  "bytecode": "0x608060405234801561001057600080fd5b50612e44806100206000396000f3fe608060405260043610620000925760003560e01c806383a6d62e116200006157806383a6d62e14620002e75780638899d20014620003f6578063958274e014620004cf578063b48cc6e514620005de578063ecbef16414620006df5762000092565b8063064ddd0414620000975780630efa51621462000108578063397f795214620001d7578063730c98301462000248575b600080fd5b348015620000a457600080fd5b50620000af620007a0565b6040518080602001828103825283818151815260200191508051906020019060200280838360005b83811015620000f4578082015181840152602081019050620000d7565b505050509050019250505060405180910390f35b3480156200011557600080fd5b50620001d5600480360360208110156200012e57600080fd5b81019080803590602001906401000000008111156200014c57600080fd5b8201836020820111156200015f57600080fd5b803590602001918460018302840111640100000000831117156200018257600080fd5b91908080601f016020809104026020016040519081016040528093929190818152602001838380828437600081840152601f19601f82011690508083019250505050505050919291929050505062000830565b005b348015620001e457600080fd5b50620001ef62000cec565b6040518080602001828103825283818151815260200191508051906020019060200280838360005b838110156200023457808201518184015260208101905062000217565b505050509050019250505060405180910390f35b3480156200025557600080fd5b50620002a5600480360360408110156200026e57600080fd5b81019080803573ffffffffffffffffffffffffffffffffffffffff1690602001909291908035906020019092919050505062000e71565b604051808273ffffffffffffffffffffffffffffffffffffffff1673ffffffffffffffffffffffffffffffffffffffff16815260200191505060405180910390f35b348015620002f457600080fd5b50620003b4600480360360208110156200030d57600080fd5b81019080803590602001906401000000008111156200032b57600080fd5b8201836020820111156200033e57600080fd5b803590602001918460018302840111640100000000831117156200036157600080fd5b91908080601f016020809104026020016040519081016040528093929190818152602001838380828437600081840152601f19601f82011690508083019250505050505050919291929050505062000ebd565b604051808273ffffffffffffffffffffffffffffffffffffffff1673ffffffffffffffffffffffffffffffffffffffff16815260200191505060405180910390f35b3480156200040357600080fd5b50620004cd600480360360408110156200041c57600080fd5b81019080803590602001906401000000008111156200043a57600080fd5b8201836020820111156200044d57600080fd5b803590602001918460018302840111640100000000831117156200047057600080fd5b91908080601f016020809104026020016040519081016040528093929190818152602001838380828437600081840152601f19601f8201169050808301925050505050505091929192908035906020019092919050505062001109565b005b348015620004dc57600080fd5b506200059c60048036036020811015620004f557600080fd5b81019080803590602001906401000000008111156200051357600080fd5b8201836020820111156200052657600080fd5b803590602001918460018302840111640100000000831117156200054957600080fd5b91908080601f016020809104026020016040519081016040528093929190818152602001838380828437600081840152601f19601f820116905080830192505050505050509192919290505050620015b7565b604051808273ffffffffffffffffffffffffffffffffffffffff1673ffffffffffffffffffffffffffffffffffffffff16815260200191505060405180910390f35b6200069d60048036036020811015620005f657600080fd5b81019080803590602001906401000000008111156200061457600080fd5b8201836020820111156200062757600080fd5b803590602001918460018302840111640100000000831117156200064a57600080fd5b91908080601f016020809104026020016040519081016040528093929190818152602001838380828437600081840152601f19601f82011690508083019250505050505050919291929050505062001600565b604051808273ffffffffffffffffffffffffffffffffffffffff1673ffffffffffffffffffffffffffffffffffffffff16815260200191505060405180910390f35b6200079e60048036036020811015620006f757600080fd5b81019080803590602001906401000000008111156200071557600080fd5b8201836020820111156200072857600080fd5b803590602001918460018302840111640100000000831117156200074b57600080fd5b91908080601f016020809104026020016040519081016040528093929190818152602001838380828437600081840152601f19601f82011690508083019250505050505050919291929050505062001973565b005b606060028054806020026020016040519081016040528092919081815260200182805480156200082657602002820191906000526020600020905b8160009054906101000a900473ffffffffffffffffffffffffffffffffffffffff1673ffffffffffffffffffffffffffffffffffffffff1681526020019060010190808311620007db575b5050505050905090565b600073ffffffffffffffffffffffffffffffffffffffff166001826040518082805190602001908083835b602083106200088057805182526020820191506020810190506020830392506200085b565b6001836020036101000a038019825116818451168082178552505050505050905001915050908152602001604051809103902060009054906101000a900473ffffffffffffffffffffffffffffffffffffffff1673ffffffffffffffffffffffffffffffffffffffff1614156200095f576040517f08c379a00000000000000000000000000000000000000000000000000000000081526004018080602001828103825260118152602001807f4861736820646f65736e7420657869737400000000000000000000000000000081525060200191505060405180910390fd5b60006001826040518082805190602001908083835b6020831062000999578051825260208201915060208101905060208303925062000974565b6001836020036101000a038019825116818451168082178552505050505050905001915050908152602001604051809103902060009054906101000a900473ffffffffffffffffffffffffffffffffffffffff169050600115158173ffffffffffffffffffffffffffffffffffffffff166320b08dc26040518163ffffffff1660e01b815260040160206040518083038186803b15801562000a3a57600080fd5b505afa15801562000a4f573d6000803e3d6000fd5b505050506040513d602081101562000a6657600080fd5b810190808051906020019092919050505015151462000aed576040517f08c379a00000000000000000000000000000000000000000000000000000000081526004018080602001828103825260198152602001807f50726f7065727479206973206e6f7420666f722073616c65210000000000000081525060200191505060405180910390fd5b3373ffffffffffffffffffffffffffffffffffffffff168173ffffffffffffffffffffffffffffffffffffffff16638da5cb5b6040518163ffffffff1660e01b815260040160206040518083038186803b15801562000b4b57600080fd5b505afa15801562000b60573d6000803e3d6000fd5b505050506040513d602081101562000b7757600080fd5b810190808051906020019092919050505073ffffffffffffffffffffffffffffffffffffffff161462000bf6576040517f08c379a000000000000000000000000000000000000000000000000000000000815260040180806020018281038252602881526020018062002de86028913960400191505060405180910390fd5b62000c8660028273ffffffffffffffffffffffffffffffffffffffff1663808414056040518163ffffffff1660e01b815260040160206040518083038186803b15801562000c4357600080fd5b505afa15801562000c58573d6000803e3d6000fd5b505050506040513d602081101562000c6f57600080fd5b810190808051906020019092919050505062002052565b8073ffffffffffffffffffffffffffffffffffffffff1663b2dc71156040518163ffffffff1660e01b8152600401600060405180830381600087803b15801562000ccf57600080fd5b505af115801562000ce4573d6000803e3d6000fd5b505050505050565b606060008060003373ffffffffffffffffffffffffffffffffffffffff1673ffffffffffffffffffffffffffffffffffffffff16815260200190815260200160002080549050141562000da7576040517f08c379a00000000000000000000000000000000000000000000000000000000081526004018080602001828103825260178152602001807f4f776e657220686173206e6f20706f73657373696f6e7300000000000000000081525060200191505060405180910390fd5b6000803373ffffffffffffffffffffffffffffffffffffffff1673ffffffffffffffffffffffffffffffffffffffff16815260200190815260200160002080548060200260200160405190810160405280929190818152602001828054801562000e6757602002820191906000526020600020905b8160009054906101000a900473ffffffffffffffffffffffffffffffffffffffff1673ffffffffffffffffffffffffffffffffffffffff168152602001906001019080831162000e1c575b5050505050905090565b6000602052816000526040600020818154811062000e8b57fe5b906000526020600020016000915091509054906101000a900473ffffffffffffffffffffffffffffffffffffffff1681565b60008073ffffffffffffffffffffffffffffffffffffffff166001836040518082805190602001908083835b6020831062000f0e578051825260208201915060208101905060208303925062000ee9565b6001836020036101000a038019825116818451168082178552505050505050905001915050908152602001604051809103902060009054906101000a900473ffffffffffffffffffffffffffffffffffffffff1673ffffffffffffffffffffffffffffffffffffffff16141562000fed576040517f08c379a00000000000000000000000000000000000000000000000000000000081526004018080602001828103825260118152602001807f4861736820646f65736e7420657869737400000000000000000000000000000081525060200191505060405180910390fd5b60006001836040518082805190602001908083835b6020831062001027578051825260208201915060208101905060208303925062001002565b6001836020036101000a038019825116818451168082178552505050505050905001915050908152602001604051809103902060009054906101000a900473ffffffffffffffffffffffffffffffffffffffff1690508073ffffffffffffffffffffffffffffffffffffffff16638da5cb5b6040518163ffffffff1660e01b815260040160206040518083038186803b158015620010c457600080fd5b505afa158015620010d9573d6000803e3d6000fd5b505050506040513d6020811015620010f057600080fd5b8101908080519060200190929190505050915050919050565b600073ffffffffffffffffffffffffffffffffffffffff166001836040518082805190602001908083835b6020831062001159578051825260208201915060208101905060208303925062001134565b6001836020036101000a038019825116818451168082178552505050505050905001915050908152602001604051809103902060009054906101000a900473ffffffffffffffffffffffffffffffffffffffff1673ffffffffffffffffffffffffffffffffffffffff16141562001238576040517f08c379a00000000000000000000000000000000000000000000000000000000081526004018080602001828103825260118152602001807f4861736820646f65736e7420657869737400000000000000000000000000000081525060200191505060405180910390fd5b60006001836040518082805190602001908083835b602083106200127257805182526020820191506020810190506020830392506200124d565b6001836020036101000a038019825116818451168082178552505050505050905001915050908152602001604051809103902060009054906101000a900473ffffffffffffffffffffffffffffffffffffffff169050600015158173ffffffffffffffffffffffffffffffffffffffff166320b08dc26040518163ffffffff1660e01b815260040160206040518083038186803b1580156200131357600080fd5b505afa15801562001328573d6000803e3d6000fd5b505050506040513d60208110156200133f57600080fd5b8101908080519060200190929190505050151514620013c6576040517f08c379a000000000000000000000000000000000000000000000000000000000815260040180806020018281038252601a8152602001807f50726f706572747920616c726561647920666f722073616c652100000000000081525060200191505060405180910390fd5b3373ffffffffffffffffffffffffffffffffffffffff168173ffffffffffffffffffffffffffffffffffffffff16638da5cb5b6040518163ffffffff1660e01b815260040160206040518083038186803b1580156200142457600080fd5b505afa15801562001439573d6000803e3d6000fd5b505050506040513d60208110156200145057600080fd5b810190808051906020019092919050505073ffffffffffffffffffffffffffffffffffffffff1614620014cf576040517f08c379a000000000000000000000000000000000000000000000000000000000815260040180806020018281038252602981526020018062002dbf6029913960400191505060405180910390fd5b60028190806001815401808255809150509060018203906000526020600020016000909192909190916101000a81548173ffffffffffffffffffffffffffffffffffffffff021916908373ffffffffffffffffffffffffffffffffffffffff160217905550508073ffffffffffffffffffffffffffffffffffffffff1663207368fc836001600280549050036040518363ffffffff1660e01b81526004018083815260200182815260200192505050600060405180830381600087803b1580156200159957600080fd5b505af1158015620015ae573d6000803e3d6000fd5b50505050505050565b6001818051602081018201805184825260208301602085012081835280955050505050506000915054906101000a900473ffffffffffffffffffffffffffffffffffffffff1681565b60008073ffffffffffffffffffffffffffffffffffffffff166001836040518082805190602001908083835b602083106200165157805182526020820191506020810190506020830392506200162c565b6001836020036101000a038019825116818451168082178552505050505050905001915050908152602001604051809103902060009054906101000a900473ffffffffffffffffffffffffffffffffffffffff1673ffffffffffffffffffffffffffffffffffffffff161462001713576040517f08c379a000000000000000000000000000000000000000000000000000000000815260040180806020018281038252602481526020018062002d7a6024913960400191505060405180910390fd5b6000823330604051620017269062002139565b80806020018473ffffffffffffffffffffffffffffffffffffffff1673ffffffffffffffffffffffffffffffffffffffff1681526020018373ffffffffffffffffffffffffffffffffffffffff1673ffffffffffffffffffffffffffffffffffffffff168152602001828103825285818151815260200191508051906020019080838360005b83811015620017c9578082015181840152602081019050620017ac565b50505050905090810190601f168015620017f75780820380516001836020036101000a031916815260200191505b50945050505050604051809103906000f0801580156200181b573d6000803e3d6000fd5b509050806001846040518082805190602001908083835b6020831062001857578051825260208201915060208101905060208303925062001832565b6001836020036101000a038019825116818451168082178552505050505050905001915050908152602001604051809103902060006101000a81548173ffffffffffffffffffffffffffffffffffffffff021916908373ffffffffffffffffffffffffffffffffffffffff1602179055506000803373ffffffffffffffffffffffffffffffffffffffff1673ffffffffffffffffffffffffffffffffffffffff1681526020019081526020016000208190806001815401808255809150509060018203906000526020600020016000909192909190916101000a81548173ffffffffffffffffffffffffffffffffffffffff021916908373ffffffffffffffffffffffffffffffffffffffff1602179055505080915050919050565b600073ffffffffffffffffffffffffffffffffffffffff166001826040518082805190602001908083835b60208310620019c357805182526020820191506020810190506020830392506200199e565b6001836020036101000a038019825116818451168082178552505050505050905001915050908152602001604051809103902060009054906101000a900473ffffffffffffffffffffffffffffffffffffffff1673ffffffffffffffffffffffffffffffffffffffff16141562001aa2576040517f08c379a00000000000000000000000000000000000000000000000000000000081526004018080602001828103825260118152602001807f4861736820646f65736e7420657869737400000000000000000000000000000081525060200191505060405180910390fd5b60006001826040518082805190602001908083835b6020831062001adc578051825260208201915060208101905060208303925062001ab7565b6001836020036101000a038019825116818451168082178552505050505050905001915050908152602001604051809103902060009054906101000a900473ffffffffffffffffffffffffffffffffffffffff1690503373ffffffffffffffffffffffffffffffffffffffff168173ffffffffffffffffffffffffffffffffffffffff16638da5cb5b6040518163ffffffff1660e01b815260040160206040518083038186803b15801562001b9057600080fd5b505afa15801562001ba5573d6000803e3d6000fd5b505050506040513d602081101562001bbc57600080fd5b810190808051906020019092919050505073ffffffffffffffffffffffffffffffffffffffff16141562001c3c576040517f08c379a000000000000000000000000000000000000000000000000000000000815260040180806020018281038252602181526020018062002d9e6021913960400191505060405180910390fd5b60008173ffffffffffffffffffffffffffffffffffffffff16638da5cb5b6040518163ffffffff1660e01b815260040160206040518083038186803b15801562001c8557600080fd5b505afa15801562001c9a573d6000803e3d6000fd5b505050506040513d602081101562001cb157600080fd5b810190808051906020019092919050505090508173ffffffffffffffffffffffffffffffffffffffff1663f088d54734336040518363ffffffff1660e01b8152600401808273ffffffffffffffffffffffffffffffffffffffff1673ffffffffffffffffffffffffffffffffffffffff1681526020019150506000604051808303818588803b15801562001d4457600080fd5b505af115801562001d59573d6000803e3d6000fd5b505050505062001dee60028373ffffffffffffffffffffffffffffffffffffffff1663808414056040518163ffffffff1660e01b815260040160206040518083038186803b15801562001dab57600080fd5b505afa15801562001dc0573d6000803e3d6000fd5b505050506040513d602081101562001dd757600080fd5b810190808051906020019092919050505062002052565b62001eba6000808373ffffffffffffffffffffffffffffffffffffffff1673ffffffffffffffffffffffffffffffffffffffff1681526020019081526020016000208373ffffffffffffffffffffffffffffffffffffffff16639bd3b70c6040518163ffffffff1660e01b815260040160206040518083038186803b15801562001e7757600080fd5b505afa15801562001e8c573d6000803e3d6000fd5b505050506040513d602081101562001ea357600080fd5b810190808051906020019092919050505062002052565b8173ffffffffffffffffffffffffffffffffffffffff1663adb75c0f60016000808673ffffffffffffffffffffffffffffffffffffffff16638da5cb5b6040518163ffffffff1660e01b815260040160206040518083038186803b15801562001f2257600080fd5b505afa15801562001f37573d6000803e3d6000fd5b505050506040513d602081101562001f4e57600080fd5b810190808051906020019092919050505073ffffffffffffffffffffffffffffffffffffffff1673ffffffffffffffffffffffffffffffffffffffff1681526020019081526020016000208590806001815401808255809150509060018203906000526020600020016000909192909190916101000a81548173ffffffffffffffffffffffffffffffffffffffff021916908373ffffffffffffffffffffffffffffffffffffffff160217905550036040518263ffffffff1660e01b815260040180828152602001915050600060405180830381600087803b1580156200203457600080fd5b505af115801562002049573d6000803e3d6000fd5b50505050505050565b600182805490501115620020f557816001838054905003815481106200207457fe5b9060005260206000200160009054906101000a900473ffffffffffffffffffffffffffffffffffffffff16828281548110620020ac57fe5b9060005260206000200160006101000a81548173ffffffffffffffffffffffffffffffffffffffff021916908373ffffffffffffffffffffffffffffffffffffffff1602179055505b818054806200210057fe5b6001900381819060005260206000200160006101000a81549073ffffffffffffffffffffffffffffffffffffffff021916905590555050565b610c3280620021488339019056fe608060405234801561001057600080fd5b50604051610c32380380610c328339818101604052606081101561003357600080fd5b810190808051604051939291908464010000000082111561005357600080fd5b8382019150602082018581111561006957600080fd5b825186600182028301116401000000008211171561008657600080fd5b8083526020830192505050908051906020019080838360005b838110156100ba57808201518184015260208101905061009f565b50505050905090810190601f1680156100e75780820380516001836020036101000a031916815260200191505b506040526020018051906020019092919080519060200190929190505050826001908051906020019061011b9291906101c0565b5081600260006101000a81548173ffffffffffffffffffffffffffffffffffffffff021916908373ffffffffffffffffffffffffffffffffffffffff160217905550806000806101000a81548173ffffffffffffffffffffffffffffffffffffffff021916908373ffffffffffffffffffffffffffffffffffffffff1602179055506000600460006101000a81548160ff021916908315150217905550505050610265565b828054600181600116156101000203166002900490600052602060002090601f016020900481019282601f1061020157805160ff191683800117855561022f565b8280016001018555821561022f579182015b8281111561022e578251825591602001919060010190610213565b5b50905061023c9190610240565b5090565b61026291905b8082111561025e576000816000905550600101610246565b5090565b90565b6109be806102746000396000f3fe6080604052600436106100915760003560e01c80639bd3b70c116100595780639bd3b70c1461021c578063a035b1fe14610247578063adb75c0f14610272578063b2dc7115146102ad578063f088d547146102c457610091565b806309bd5a6014610096578063207368fc1461012657806320b08dc21461016b578063808414051461019a5780638da5cb5b146101c5575b600080fd5b3480156100a257600080fd5b506100ab610308565b6040518080602001828103825283818151815260200191508051906020019080838360005b838110156100eb5780820151818401526020810190506100d0565b50505050905090810190601f1680156101185780820380516001836020036101000a031916815260200191505b509250505060405180910390f35b34801561013257600080fd5b506101696004803603604081101561014957600080fd5b8101908080359060200190929190803590602001909291905050506103a6565b005b34801561017757600080fd5b50610180610478565b604051808215151515815260200191505060405180910390f35b3480156101a657600080fd5b506101af61048b565b6040518082815260200191505060405180910390f35b3480156101d157600080fd5b506101da610491565b604051808273ffffffffffffffffffffffffffffffffffffffff1673ffffffffffffffffffffffffffffffffffffffff16815260200191505060405180910390f35b34801561022857600080fd5b506102316104b7565b6040518082815260200191505060405180910390f35b34801561025357600080fd5b5061025c6104bd565b6040518082815260200191505060405180910390f35b34801561027e57600080fd5b506102ab6004803603602081101561029557600080fd5b81019080803590602001909291905050506104c3565b005b3480156102b957600080fd5b506102c2610572565b005b610306600480360360208110156102da57600080fd5b81019080803573ffffffffffffffffffffffffffffffffffffffff169060200190929190505050610634565b005b60018054600181600116156101000203166002900480601f01602080910402602001604051908101604052809291908181526020018280546001816001161561010002031660029004801561039e5780601f106103735761010080835404028352916020019161039e565b820191906000526020600020905b81548152906001019060200180831161038157829003601f168201915b505050505081565b6000809054906101000a900473ffffffffffffffffffffffffffffffffffffffff1673ffffffffffffffffffffffffffffffffffffffff163373ffffffffffffffffffffffffffffffffffffffff161461044b576040517f08c379a000000000000000000000000000000000000000000000000000000000815260040180806020018281038252602a815260200180610960602a913960400191505060405180910390fd5b816003819055506001600460006101000a81548160ff021916908315150217905550806006819055505050565b600460009054906101000a900460ff1681565b60065481565b600260009054906101000a900473ffffffffffffffffffffffffffffffffffffffff1681565b60055481565b60035481565b6000809054906101000a900473ffffffffffffffffffffffffffffffffffffffff1673ffffffffffffffffffffffffffffffffffffffff163373ffffffffffffffffffffffffffffffffffffffff1614610568576040517f08c379a000000000000000000000000000000000000000000000000000000000815260040180806020018281038252602a815260200180610960602a913960400191505060405180910390fd5b8060058190555050565b6000809054906101000a900473ffffffffffffffffffffffffffffffffffffffff1673ffffffffffffffffffffffffffffffffffffffff163373ffffffffffffffffffffffffffffffffffffffff1614610617576040517f08c379a000000000000000000000000000000000000000000000000000000000815260040180806020018281038252602a815260200180610960602a913960400191505060405180910390fd5b6000600460006101000a81548160ff021916908315150217905550565b6000809054906101000a900473ffffffffffffffffffffffffffffffffffffffff1673ffffffffffffffffffffffffffffffffffffffff163373ffffffffffffffffffffffffffffffffffffffff16146106d9576040517f08c379a000000000000000000000000000000000000000000000000000000000815260040180806020018281038252602a815260200180610960602a913960400191505060405180910390fd5b600260009054906101000a900473ffffffffffffffffffffffffffffffffffffffff1673ffffffffffffffffffffffffffffffffffffffff168173ffffffffffffffffffffffffffffffffffffffff16141561079d576040517f08c379a00000000000000000000000000000000000000000000000000000000081526004018080602001828103825260158152602001807f4f776e65722063616e6e6f74206265204275796572000000000000000000000081525060200191505060405180910390fd5b600460009054906101000a900460ff1661081f576040517f08c379a00000000000000000000000000000000000000000000000000000000081526004018080602001828103825260148152602001807f4974656d206973206e6f7420666f722073656c6c00000000000000000000000081525060200191505060405180910390fd5b346003541115610897576040517f08c379a000000000000000000000000000000000000000000000000000000000815260040180806020018281038252601a8152602001807f496e737566696369656e742066756e647320726563696576656400000000000081525060200191505060405180910390fd5b6000600460006101000a81548160ff021916908315150217905550600260009054906101000a900473ffffffffffffffffffffffffffffffffffffffff1673ffffffffffffffffffffffffffffffffffffffff166108fc349081150290604051600060405180830381858888f1935050505015801561091a573d6000803e3d6000fd5b5080600260006101000a81548173ffffffffffffffffffffffffffffffffffffffff021916908373ffffffffffffffffffffffffffffffffffffffff1602179055505056fe4f6e6c79207472757374656420697044617461626173652063616e206d616b6520746869732063616c6ca265627a7a72315820301438993306b9f04760821d4ecfacc558c7fe202e59e420d883b3fec3d8d42b64736f6c634300051000324861736820616c72656164792065786973747320696e20746865204461746162617365214f776e65722063616e6e6f742062757920686973206f776e2070726f70657274794f6e6c79206f776e65722063616e2073746172742073656c6c696e67206869732070726f70657274794f6e6c79206f776e65722063616e2073746f702073656c6c696e67206869732070726f7065727479a265627a7a723158205ed6649a1226fd648c75751570aeb5ceb046a43a36d2ba21dc8bac6a367e3b1e64736f6c63430005100032",
  "source": "// SPDX-License-Identifier: MIT\npragma solidity 0.5.16;\n\nimport  './Property.sol';\n\ncontract Database {\n\n    // maps owners to their properties\n    mapping(address => Property[]) public ownerToHashes;\n    // intellectual property Database - storing all Properties (music files)\n    mapping(string => address) public hashDatabase;\n    // stores properties that are for sale - to avoid loops\n    Property[] itemsForSale;\n\n\n    //displays selling properties\n   function getItemsForSale() public view returns  (Property[] memory){\n       return itemsForSale;\n   }\n\n    function addProperty(string memory hash) public payable returns (Property) {\n       require(hashDatabase[hash]==address(0x0),\"Hash already exists in the Database!\");\n\n        Property pnew = new Property(hash,msg.sender,address(this));\n        hashDatabase[hash] = address(pnew);\n        ownerToHashes[msg.sender].push(pnew);\n        return pnew;\n    }\n\n    function buyProperty(string memory _hash) public payable {\n        require(hashDatabase[_hash]!=address(0x0),\"Hash doesnt exist\");\n        Property p = Property(address(hashDatabase[_hash]));\n        require(p.owner()!=msg.sender, \"Owner cannot buy his own property\");\n        //call buy function and pass the money to the buy function...\n        address oldOwner = p.owner(); //need it for later to remove property from his list\n        p.buy.value(msg.value)(msg.sender); //<- this is how you forward the money to the next function/contract\n\n        //if we are here that means the property got sold\n        //remove from listing\n        removeProperty(itemsForSale,p.sellingIndex());\n        //remove from old-owners list\n        removeProperty(ownerToHashes[oldOwner],p.ownersIndex());\n        //add to new owners list and update owners index inside the property\n        p.setOwnersIndex(ownerToHashes[p.owner()].push(p)-1);\n    }\n\n    function removeProperty(Property[] storage list, uint index) private {\n        if (list.length > 1) {\n            //if more than one element, switch last with the item to remove\n            list[index] = list[list.length-1];\n        }\n        //decrease list size\n        //list.length--;\n        list.pop();\n    }\n\n    function startSellingProperty(string memory _hash, uint price) public  {\n        require(hashDatabase[_hash]!=address(0x0),\"Hash doesnt exist\");\n        Property p = Property(address(hashDatabase[_hash]));\n        require(p.isForSale()==false,\"Property already for sale!\");\n        require(p.owner()==msg.sender, \"Only owner can start selling his property\");\n        itemsForSale.push(p); //put the listing up\n        //call buy function and pass the money to the buy function...\n        p.startSelling(price,itemsForSale.length-1); //TODO doesnt work because msg.sender will be the contract itself..\n    }\n\n    function stopSellingProperty(string memory _hash) public {\n        require(hashDatabase[_hash]!=address(0x0),\"Hash doesnt exist\");\n        Property p = Property(address(hashDatabase[_hash]));\n        require(p.isForSale()==true,\"Property is not for sale!\");\n        require(p.owner()==msg.sender, \"Only owner can stop selling his property\");\n\n        removeProperty(itemsForSale,p.sellingIndex());\n        p.stopSelling();\n    }\n\n    function getOwnerOfHash(string memory _hash) public view returns (address) {\n       require(hashDatabase[_hash]!=address(0x0),\"Hash doesnt exist\");\n       Property p = Property(address(hashDatabase[_hash]));\n       return p.owner();\n    }\n\n    function getMyProperties() public view returns (Property[] memory) {\n        require(ownerToHashes[msg.sender].length!=0,\"Owner has no posessions\");\n        return ownerToHashes[msg.sender];\n    }\n}\n",
  "sourcePath": "/Users/filiptwardzik/inflation/contracts/Database.sol",
  "compiler": {
    "name": "solc",
    "version": "0.5.16+commit.9c3226ce.Emscripten.clang"
  },
  "schemaVersion": "3.2.1",
  "updatedAt": "2020-07-03T10:13:40.127Z",
  "devdoc": {
    "methods": {}
  },
  "userdoc": {
    "methods": {}
  }
}