{
  "contractName": "idDatabase",
  "abi": [
    {
      "constant": false,
      "inputs": [
        {
          "internalType": "string",
          "name": "_fingerprint",
          "type": "string"
        }
      ],
      "name": "buyCopyright",
      "outputs": [],
      "payable": true,
      "stateMutability": "payable",
      "type": "function"
    }
  ],
  "bytecode": "0x608060405234801561001057600080fd5b50610764806100206000396000f3fe60806040526004361061001e5760003560e01c806320c4b78c14610023575b600080fd5b6100dc6004803603602081101561003957600080fd5b810190808035906020019064010000000081111561005657600080fd5b82018360208201111561006857600080fd5b8035906020019184600183028401116401000000008311171561008a57600080fd5b91908080601f016020809104026020016040519081016040528093929190818152602001838380828437600081840152601f19601f8201169050808301925050505050505091929192905050506100de565b005b60006003826040518082805190602001908083835b6020831061011657805182526020820191506020810190506020830392506100f3565b6001836020036101000a03801982511681845116808217855250505050505090500191505090815260200160405180910390209050600115158160040160009054906101000a900460ff1615151480156101ed5750600115156003836040518082805190602001908083835b602083106101a55780518252602082019150602081019050602083039250610182565b6001836020036101000a038019825116818451168082178552505050505050905001915050908152602001604051809103902060010160149054906101000a900460ff161515145b61025f576040517f08c379a00000000000000000000000000000000000000000000000000000000081526004018080602001828103825260108152602001807f4973206e6f7420666f722073616c65210000000000000000000000000000000081525060200191505060405180910390fd5b8060010160009054906101000a900473ffffffffffffffffffffffffffffffffffffffff1673ffffffffffffffffffffffffffffffffffffffff163373ffffffffffffffffffffffffffffffffffffffff161415610325576040517f08c379a000000000000000000000000000000000000000000000000000000000815260040180806020018281038252601e8152602001807f546865206f776e65722063616e206e6f7420626520746865206275796572000081525060200191505060405180910390fd5b806002015434101561039f576040517f08c379a000000000000000000000000000000000000000000000000000000000815260040180806020018281038252601c8152602001807f5468652066756e647320617265206e6f742073756666696369656e740000000081525060200191505060405180910390fd5b8060010160009054906101000a900473ffffffffffffffffffffffffffffffffffffffff1673ffffffffffffffffffffffffffffffffffffffff166108fc349081150290604051600060405180830381858888f19350505050158015610409573d6000803e3d6000fd5b50338160010160006101000a81548173ffffffffffffffffffffffffffffffffffffffff021916908373ffffffffffffffffffffffffffffffffffffffff160217905550600160048054905011156105a45760008160030154905060046001600480549050038154811061047957fe5b90600052602060002090600502016004828154811061049457fe5b9060005260206000209060050201600082018160000190805460018160011615610100020316600290046104c992919061063b565b506001820160009054906101000a900473ffffffffffffffffffffffffffffffffffffffff168160010160006101000a81548173ffffffffffffffffffffffffffffffffffffffff021916908373ffffffffffffffffffffffffffffffffffffffff1602179055506001820160149054906101000a900460ff168160010160146101000a81548160ff02191690831515021790555060028201548160020155600382015481600301556004820160009054906101000a900460ff168160040160006101000a81548160ff021916908315150217905550905050505b60048054806105af57fe5b6001900381819060005260206000209060050201600080820160006105d491906106c2565b6001820160006101000a81549073ffffffffffffffffffffffffffffffffffffffff02191690556001820160146101000a81549060ff0219169055600282016000905560038201600090556004820160006101000a81549060ff0219169055505090555050565b828054600181600116156101000203166002900490600052602060002090601f016020900481019282601f1061067457805485556106b1565b828001600101855582156106b157600052602060002091601f016020900482015b828111156106b0578254825591600101919060010190610695565b5b5090506106be919061070a565b5090565b50805460018160011615610100020316600290046000825580601f106106e85750610707565b601f016020900490600052602060002090810190610706919061070a565b5b50565b61072c91905b80821115610728576000816000905550600101610710565b5090565b9056fea265627a7a723158206793826109ac11a6f4daedbad7562555ce8e80215a9499e3bfc1ca25d9dccc7364736f6c63430005100032",
  "source": "// SPDX-License-Identifier: MIT\npragma solidity 0.5.16;\ncontract idDatabase{\n\n    struct Account {\n        // string userName;\n        Copyright[] copyrights;\n        uint index; // to remember its index in the userAddresses array and avoid loops\n    }\n\n    struct Copyright {\n        string fingerprint;\n        address payable owner;\n        // string name;\n        // string comment;\n        bool isForSale;\n        uint price;\n        uint sellingIndex;\n        bool exists;\n    }\n\n    address[] userAddresses;\n    mapping (address => Account) accounts;\n\n    string[] fingerprints;\n    mapping (string => Copyright) copyrights;\n\n    Copyright[] itemsForSale;\n    \n    function addCopyright (string memory _fingerprint) private {\n        require(copyrights[_fingerprint].exists == false, \"Fingerprint already exists in the database!\");\n\n        Copyright memory newCopyright = Copyright(_fingerprint, msg.sender, false, uint(-1), uint(-1), true);\n        accounts[msg.sender].copyrights.push(newCopyright);\n\n        copyrights[_fingerprint] = newCopyright;\n        fingerprints.push(_fingerprint);\n    }\n\n    function sellCopyright(string memory _fingerprint, uint _price) private {\n        Copyright storage copyright = copyrights[_fingerprint];\n        require(copyright.exists == true, \"There is no such copyright saved on the blockchain\");\n        require(msg.sender == copyright.owner, \"Only the owner can call this function\");\n        require(copyright.isForSale == false,\n        \"This copyright is already for sale\");\n\n        copyright.isForSale = true;\n        copyright.price = _price;\n        copyright.sellingIndex = itemsForSale.length-1;\n\n        // todo ... accounts[msg.sender].copyrights ...\n\n        itemsForSale.push(copyright);\n    }\n\n    function buyCopyright(string memory _fingerprint) public payable {\n        Copyright storage copyright = copyrights[_fingerprint];\n        require(copyright.exists == true && copyrights[_fingerprint].isForSale == true,\n        \"Is not for sale!\");\n        require(msg.sender != copyright.owner, \"The owner can not be the buyer\");\n        require(msg.value >= copyright.price, \"The funds are not sufficient\");\n\n        copyright.owner.transfer(msg.value);\n        copyright.owner = msg.sender;\n\n        // todo delete the copyright from the sellers account\n        // todo add the copyright to the buyers account\n\n        // delete from itemsForSale\n        if(itemsForSale.length>1){ \n            uint index = copyright.sellingIndex;\n            itemsForSale[index]=itemsForSale[itemsForSale.length-1];\n        }\n        itemsForSale.pop();\n\n    }\n\n}",
  "sourcePath": "/Users/filiptwardzik/inflation/contracts/wip/copyrightsv2.sol",
  "compiler": {
    "name": "solc",
    "version": "0.5.16+commit.9c3226ce.Emscripten.clang"
  },
  "schemaVersion": "3.2.1",
  "updatedAt": "2020-07-03T09:36:20.881Z",
  "devdoc": {
    "methods": {}
  },
  "userdoc": {
    "methods": {}
  }
}