{
  "contractName": "ipDatabase",
  "abi": [
    {
      "constant": true,
      "inputs": [
        {
          "internalType": "string",
          "name": "",
          "type": "string"
        }
      ],
      "name": "hashDatabase",
      "outputs": [
        {
          "internalType": "address",
          "name": "",
          "type": "address"
        }
      ],
      "payable": false,
      "stateMutability": "view",
      "type": "function"
    },
    {
      "constant": true,
      "inputs": [
        {
          "internalType": "address",
          "name": "",
          "type": "address"
        },
        {
          "internalType": "uint256",
          "name": "",
          "type": "uint256"
        }
      ],
      "name": "ownerToHashes",
      "outputs": [
        {
          "internalType": "contract Property",
          "name": "",
          "type": "address"
        }
      ],
      "payable": false,
      "stateMutability": "view",
      "type": "function"
    },
    {
      "constant": true,
      "inputs": [],
      "name": "getItemsForSale",
      "outputs": [
        {
          "internalType": "contract Property[]",
          "name": "",
          "type": "address[]"
        }
      ],
      "payable": false,
      "stateMutability": "view",
      "type": "function"
    },
    {
      "constant": false,
      "inputs": [
        {
          "internalType": "string",
          "name": "hash",
          "type": "string"
        }
      ],
      "name": "addProperty",
      "outputs": [
        {
          "internalType": "contract Property",
          "name": "",
          "type": "address"
        }
      ],
      "payable": true,
      "stateMutability": "payable",
      "type": "function"
    },
    {
      "constant": false,
      "inputs": [
        {
          "internalType": "string",
          "name": "_hash",
          "type": "string"
        }
      ],
      "name": "buyProperty",
      "outputs": [],
      "payable": true,
      "stateMutability": "payable",
      "type": "function"
    },
    {
      "constant": false,
      "inputs": [
        {
          "internalType": "string",
          "name": "_hash",
          "type": "string"
        },
        {
          "internalType": "uint256",
          "name": "price",
          "type": "uint256"
        }
      ],
      "name": "startSellingProperty",
      "outputs": [],
      "payable": false,
      "stateMutability": "nonpayable",
      "type": "function"
    },
    {
      "constant": true,
      "inputs": [
        {
          "internalType": "string",
          "name": "_hash",
          "type": "string"
        }
      ],
      "name": "getOwnerOfHash",
      "outputs": [
        {
          "internalType": "address",
          "name": "",
          "type": "address"
        }
      ],
      "payable": false,
      "stateMutability": "view",
      "type": "function"
    },
    {
      "constant": true,
      "inputs": [],
      "name": "getMyProperties",
      "outputs": [
        {
          "internalType": "contract Property[]",
          "name": "",
          "type": "address[]"
        }
      ],
      "payable": false,
      "stateMutability": "view",
      "type": "function"
    }
  ],
  "bytecode": "0x608060405234801561001057600080fd5b50612885806100206000396000f3fe608060405260043610620000865760003560e01c80638899d20011620000555780638899d200146200031b578063958274e014620003f4578063b48cc6e51462000503578063ecbef16414620006045762000086565b8063064ddd04146200008b578063397f795214620000fc578063730c9830146200016d57806383a6d62e146200020c575b600080fd5b3480156200009857600080fd5b50620000a3620006c5565b6040518080602001828103825283818151815260200191508051906020019060200280838360005b83811015620000e8578082015181840152602081019050620000cb565b505050509050019250505060405180910390f35b3480156200010957600080fd5b506200011462000755565b6040518080602001828103825283818151815260200191508051906020019060200280838360005b83811015620001595780820151818401526020810190506200013c565b505050509050019250505060405180910390f35b3480156200017a57600080fd5b50620001ca600480360360408110156200019357600080fd5b81019080803573ffffffffffffffffffffffffffffffffffffffff16906020019092919080359060200190929190505050620008da565b604051808273ffffffffffffffffffffffffffffffffffffffff1673ffffffffffffffffffffffffffffffffffffffff16815260200191505060405180910390f35b3480156200021957600080fd5b50620002d9600480360360208110156200023257600080fd5b81019080803590602001906401000000008111156200025057600080fd5b8201836020820111156200026357600080fd5b803590602001918460018302840111640100000000831117156200028657600080fd5b91908080601f016020809104026020016040519081016040528093929190818152602001838380828437600081840152601f19601f82011690508083019250505050505050919291929050505062000926565b604051808273ffffffffffffffffffffffffffffffffffffffff1673ffffffffffffffffffffffffffffffffffffffff16815260200191505060405180910390f35b3480156200032857600080fd5b50620003f2600480360360408110156200034157600080fd5b81019080803590602001906401000000008111156200035f57600080fd5b8201836020820111156200037257600080fd5b803590602001918460018302840111640100000000831117156200039557600080fd5b91908080601f016020809104026020016040519081016040528093929190818152602001838380828437600081840152601f19601f8201169050808301925050505050505091929192908035906020019092919050505062000b72565b005b3480156200040157600080fd5b50620004c1600480360360208110156200041a57600080fd5b81019080803590602001906401000000008111156200043857600080fd5b8201836020820111156200044b57600080fd5b803590602001918460018302840111640100000000831117156200046e57600080fd5b91908080601f016020809104026020016040519081016040528093929190818152602001838380828437600081840152601f19601f82011690508083019250505050505050919291929050505062001020565b604051808273ffffffffffffffffffffffffffffffffffffffff1673ffffffffffffffffffffffffffffffffffffffff16815260200191505060405180910390f35b620005c2600480360360208110156200051b57600080fd5b81019080803590602001906401000000008111156200053957600080fd5b8201836020820111156200054c57600080fd5b803590602001918460018302840111640100000000831117156200056f57600080fd5b91908080601f016020809104026020016040519081016040528093929190818152602001838380828437600081840152601f19601f82011690508083019250505050505050919291929050505062001069565b604051808273ffffffffffffffffffffffffffffffffffffffff1673ffffffffffffffffffffffffffffffffffffffff16815260200191505060405180910390f35b620006c3600480360360208110156200061c57600080fd5b81019080803590602001906401000000008111156200063a57600080fd5b8201836020820111156200064d57600080fd5b803590602001918460018302840111640100000000831117156200067057600080fd5b91908080601f016020809104026020016040519081016040528093929190818152602001838380828437600081840152601f19601f820116905080830192505050505050509192919290505050620013dc565b005b606060028054806020026020016040519081016040528092919081815260200182805480156200074b57602002820191906000526020600020905b8160009054906101000a900473ffffffffffffffffffffffffffffffffffffffff1673ffffffffffffffffffffffffffffffffffffffff168152602001906001019080831162000700575b5050505050905090565b606060008060003373ffffffffffffffffffffffffffffffffffffffff1673ffffffffffffffffffffffffffffffffffffffff16815260200190815260200160002080549050141562000810576040517f08c379a00000000000000000000000000000000000000000000000000000000081526004018080602001828103825260178152602001807f4f776e657220686173206e6f20706f73657373696f6e7300000000000000000081525060200191505060405180910390fd5b6000803373ffffffffffffffffffffffffffffffffffffffff1673ffffffffffffffffffffffffffffffffffffffff168152602001908152602001600020805480602002602001604051908101604052809291908181526020018280548015620008d057602002820191906000526020600020905b8160009054906101000a900473ffffffffffffffffffffffffffffffffffffffff1673ffffffffffffffffffffffffffffffffffffffff168152602001906001019080831162000885575b5050505050905090565b60006020528160005260406000208181548110620008f457fe5b906000526020600020016000915091509054906101000a900473ffffffffffffffffffffffffffffffffffffffff1681565b60008073ffffffffffffffffffffffffffffffffffffffff166001836040518082805190602001908083835b6020831062000977578051825260208201915060208101905060208303925062000952565b6001836020036101000a038019825116818451168082178552505050505050905001915050908152602001604051809103902060009054906101000a900473ffffffffffffffffffffffffffffffffffffffff1673ffffffffffffffffffffffffffffffffffffffff16141562000a56576040517f08c379a00000000000000000000000000000000000000000000000000000000081526004018080602001828103825260118152602001807f4861736820646f65736e7420657869737400000000000000000000000000000081525060200191505060405180910390fd5b60006001836040518082805190602001908083835b6020831062000a90578051825260208201915060208101905060208303925062000a6b565b6001836020036101000a038019825116818451168082178552505050505050905001915050908152602001604051809103902060009054906101000a900473ffffffffffffffffffffffffffffffffffffffff1690508073ffffffffffffffffffffffffffffffffffffffff16638da5cb5b6040518163ffffffff1660e01b815260040160206040518083038186803b15801562000b2d57600080fd5b505afa15801562000b42573d6000803e3d6000fd5b505050506040513d602081101562000b5957600080fd5b8101908080519060200190929190505050915050919050565b600073ffffffffffffffffffffffffffffffffffffffff166001836040518082805190602001908083835b6020831062000bc2578051825260208201915060208101905060208303925062000b9d565b6001836020036101000a038019825116818451168082178552505050505050905001915050908152602001604051809103902060009054906101000a900473ffffffffffffffffffffffffffffffffffffffff1673ffffffffffffffffffffffffffffffffffffffff16141562000ca1576040517f08c379a00000000000000000000000000000000000000000000000000000000081526004018080602001828103825260118152602001807f4861736820646f65736e7420657869737400000000000000000000000000000081525060200191505060405180910390fd5b60006001836040518082805190602001908083835b6020831062000cdb578051825260208201915060208101905060208303925062000cb6565b6001836020036101000a038019825116818451168082178552505050505050905001915050908152602001604051809103902060009054906101000a900473ffffffffffffffffffffffffffffffffffffffff169050600015158173ffffffffffffffffffffffffffffffffffffffff166320b08dc26040518163ffffffff1660e01b815260040160206040518083038186803b15801562000d7c57600080fd5b505afa15801562000d91573d6000803e3d6000fd5b505050506040513d602081101562000da857600080fd5b810190808051906020019092919050505015151462000e2f576040517f08c379a000000000000000000000000000000000000000000000000000000000815260040180806020018281038252601a8152602001807f50726f706572747920616c726561647920666f722073616c652100000000000081525060200191505060405180910390fd5b3373ffffffffffffffffffffffffffffffffffffffff168173ffffffffffffffffffffffffffffffffffffffff16638da5cb5b6040518163ffffffff1660e01b815260040160206040518083038186803b15801562000e8d57600080fd5b505afa15801562000ea2573d6000803e3d6000fd5b505050506040513d602081101562000eb957600080fd5b810190808051906020019092919050505073ffffffffffffffffffffffffffffffffffffffff161462000f38576040517f08c379a0000000000000000000000000000000000000000000000000000000008152600401808060200182810382526029815260200180620028286029913960400191505060405180910390fd5b60028190806001815401808255809150509060018203906000526020600020016000909192909190916101000a81548173ffffffffffffffffffffffffffffffffffffffff021916908373ffffffffffffffffffffffffffffffffffffffff160217905550508073ffffffffffffffffffffffffffffffffffffffff1663207368fc836001600280549050036040518363ffffffff1660e01b81526004018083815260200182815260200192505050600060405180830381600087803b1580156200100257600080fd5b505af115801562001017573d6000803e3d6000fd5b50505050505050565b6001818051602081018201805184825260208301602085012081835280955050505050506000915054906101000a900473ffffffffffffffffffffffffffffffffffffffff1681565b60008073ffffffffffffffffffffffffffffffffffffffff166001836040518082805190602001908083835b60208310620010ba578051825260208201915060208101905060208303925062001095565b6001836020036101000a038019825116818451168082178552505050505050905001915050908152602001604051809103902060009054906101000a900473ffffffffffffffffffffffffffffffffffffffff1673ffffffffffffffffffffffffffffffffffffffff16146200117c576040517f08c379a0000000000000000000000000000000000000000000000000000000008152600401808060200182810382526024815260200180620027e36024913960400191505060405180910390fd5b60008233306040516200118f9062001ba2565b80806020018473ffffffffffffffffffffffffffffffffffffffff1673ffffffffffffffffffffffffffffffffffffffff1681526020018373ffffffffffffffffffffffffffffffffffffffff1673ffffffffffffffffffffffffffffffffffffffff168152602001828103825285818151815260200191508051906020019080838360005b838110156200123257808201518184015260208101905062001215565b50505050905090810190601f168015620012605780820380516001836020036101000a031916815260200191505b50945050505050604051809103906000f08015801562001284573d6000803e3d6000fd5b509050806001846040518082805190602001908083835b60208310620012c057805182526020820191506020810190506020830392506200129b565b6001836020036101000a038019825116818451168082178552505050505050905001915050908152602001604051809103902060006101000a81548173ffffffffffffffffffffffffffffffffffffffff021916908373ffffffffffffffffffffffffffffffffffffffff1602179055506000803373ffffffffffffffffffffffffffffffffffffffff1673ffffffffffffffffffffffffffffffffffffffff1681526020019081526020016000208190806001815401808255809150509060018203906000526020600020016000909192909190916101000a81548173ffffffffffffffffffffffffffffffffffffffff021916908373ffffffffffffffffffffffffffffffffffffffff1602179055505080915050919050565b600073ffffffffffffffffffffffffffffffffffffffff166001826040518082805190602001908083835b602083106200142c578051825260208201915060208101905060208303925062001407565b6001836020036101000a038019825116818451168082178552505050505050905001915050908152602001604051809103902060009054906101000a900473ffffffffffffffffffffffffffffffffffffffff1673ffffffffffffffffffffffffffffffffffffffff1614156200150b576040517f08c379a00000000000000000000000000000000000000000000000000000000081526004018080602001828103825260118152602001807f4861736820646f65736e7420657869737400000000000000000000000000000081525060200191505060405180910390fd5b60006001826040518082805190602001908083835b6020831062001545578051825260208201915060208101905060208303925062001520565b6001836020036101000a038019825116818451168082178552505050505050905001915050908152602001604051809103902060009054906101000a900473ffffffffffffffffffffffffffffffffffffffff1690503373ffffffffffffffffffffffffffffffffffffffff168173ffffffffffffffffffffffffffffffffffffffff16638da5cb5b6040518163ffffffff1660e01b815260040160206040518083038186803b158015620015f957600080fd5b505afa1580156200160e573d6000803e3d6000fd5b505050506040513d60208110156200162557600080fd5b810190808051906020019092919050505073ffffffffffffffffffffffffffffffffffffffff161415620016a5576040517f08c379a0000000000000000000000000000000000000000000000000000000008152600401808060200182810382526021815260200180620028076021913960400191505060405180910390fd5b60008173ffffffffffffffffffffffffffffffffffffffff16638da5cb5b6040518163ffffffff1660e01b815260040160206040518083038186803b158015620016ee57600080fd5b505afa15801562001703573d6000803e3d6000fd5b505050506040513d60208110156200171a57600080fd5b810190808051906020019092919050505090508173ffffffffffffffffffffffffffffffffffffffff1663f088d54734336040518363ffffffff1660e01b8152600401808273ffffffffffffffffffffffffffffffffffffffff1673ffffffffffffffffffffffffffffffffffffffff1681526020019150506000604051808303818588803b158015620017ad57600080fd5b505af1158015620017c2573d6000803e3d6000fd5b50505050506200185760028373ffffffffffffffffffffffffffffffffffffffff1663808414056040518163ffffffff1660e01b815260040160206040518083038186803b1580156200181457600080fd5b505afa15801562001829573d6000803e3d6000fd5b505050506040513d60208110156200184057600080fd5b810190808051906020019092919050505062001abb565b620019236000808373ffffffffffffffffffffffffffffffffffffffff1673ffffffffffffffffffffffffffffffffffffffff1681526020019081526020016000208373ffffffffffffffffffffffffffffffffffffffff16639bd3b70c6040518163ffffffff1660e01b815260040160206040518083038186803b158015620018e057600080fd5b505afa158015620018f5573d6000803e3d6000fd5b505050506040513d60208110156200190c57600080fd5b810190808051906020019092919050505062001abb565b8173ffffffffffffffffffffffffffffffffffffffff1663adb75c0f60016000808673ffffffffffffffffffffffffffffffffffffffff16638da5cb5b6040518163ffffffff1660e01b815260040160206040518083038186803b1580156200198b57600080fd5b505afa158015620019a0573d6000803e3d6000fd5b505050506040513d6020811015620019b757600080fd5b810190808051906020019092919050505073ffffffffffffffffffffffffffffffffffffffff1673ffffffffffffffffffffffffffffffffffffffff1681526020019081526020016000208590806001815401808255809150509060018203906000526020600020016000909192909190916101000a81548173ffffffffffffffffffffffffffffffffffffffff021916908373ffffffffffffffffffffffffffffffffffffffff160217905550036040518263ffffffff1660e01b815260040180828152602001915050600060405180830381600087803b15801562001a9d57600080fd5b505af115801562001ab2573d6000803e3d6000fd5b50505050505050565b60018280549050111562001b5e578160018380549050038154811062001add57fe5b9060005260206000200160009054906101000a900473ffffffffffffffffffffffffffffffffffffffff1682828154811062001b1557fe5b9060005260206000200160006101000a81548173ffffffffffffffffffffffffffffffffffffffff021916908373ffffffffffffffffffffffffffffffffffffffff1602179055505b8180548062001b6957fe5b6001900381819060005260206000200160006101000a81549073ffffffffffffffffffffffffffffffffffffffff021916905590555050565b610c328062001bb18339019056fe608060405234801561001057600080fd5b50604051610c32380380610c328339818101604052606081101561003357600080fd5b810190808051604051939291908464010000000082111561005357600080fd5b8382019150602082018581111561006957600080fd5b825186600182028301116401000000008211171561008657600080fd5b8083526020830192505050908051906020019080838360005b838110156100ba57808201518184015260208101905061009f565b50505050905090810190601f1680156100e75780820380516001836020036101000a031916815260200191505b506040526020018051906020019092919080519060200190929190505050826001908051906020019061011b9291906101c0565b5081600260006101000a81548173ffffffffffffffffffffffffffffffffffffffff021916908373ffffffffffffffffffffffffffffffffffffffff160217905550806000806101000a81548173ffffffffffffffffffffffffffffffffffffffff021916908373ffffffffffffffffffffffffffffffffffffffff1602179055506000600460006101000a81548160ff021916908315150217905550505050610265565b828054600181600116156101000203166002900490600052602060002090601f016020900481019282601f1061020157805160ff191683800117855561022f565b8280016001018555821561022f579182015b8281111561022e578251825591602001919060010190610213565b5b50905061023c9190610240565b5090565b61026291905b8082111561025e576000816000905550600101610246565b5090565b90565b6109be806102746000396000f3fe6080604052600436106100915760003560e01c80639bd3b70c116100595780639bd3b70c1461021c578063a035b1fe14610247578063adb75c0f14610272578063b2dc7115146102ad578063f088d547146102c457610091565b806309bd5a6014610096578063207368fc1461012657806320b08dc21461016b578063808414051461019a5780638da5cb5b146101c5575b600080fd5b3480156100a257600080fd5b506100ab610308565b6040518080602001828103825283818151815260200191508051906020019080838360005b838110156100eb5780820151818401526020810190506100d0565b50505050905090810190601f1680156101185780820380516001836020036101000a031916815260200191505b509250505060405180910390f35b34801561013257600080fd5b506101696004803603604081101561014957600080fd5b8101908080359060200190929190803590602001909291905050506103a6565b005b34801561017757600080fd5b50610180610478565b604051808215151515815260200191505060405180910390f35b3480156101a657600080fd5b506101af61048b565b6040518082815260200191505060405180910390f35b3480156101d157600080fd5b506101da610491565b604051808273ffffffffffffffffffffffffffffffffffffffff1673ffffffffffffffffffffffffffffffffffffffff16815260200191505060405180910390f35b34801561022857600080fd5b506102316104b7565b6040518082815260200191505060405180910390f35b34801561025357600080fd5b5061025c6104bd565b6040518082815260200191505060405180910390f35b34801561027e57600080fd5b506102ab6004803603602081101561029557600080fd5b81019080803590602001909291905050506104c3565b005b3480156102b957600080fd5b506102c2610572565b005b610306600480360360208110156102da57600080fd5b81019080803573ffffffffffffffffffffffffffffffffffffffff169060200190929190505050610634565b005b60018054600181600116156101000203166002900480601f01602080910402602001604051908101604052809291908181526020018280546001816001161561010002031660029004801561039e5780601f106103735761010080835404028352916020019161039e565b820191906000526020600020905b81548152906001019060200180831161038157829003601f168201915b505050505081565b6000809054906101000a900473ffffffffffffffffffffffffffffffffffffffff1673ffffffffffffffffffffffffffffffffffffffff163373ffffffffffffffffffffffffffffffffffffffff161461044b576040517f08c379a000000000000000000000000000000000000000000000000000000000815260040180806020018281038252602a815260200180610960602a913960400191505060405180910390fd5b816003819055506001600460006101000a81548160ff021916908315150217905550806006819055505050565b600460009054906101000a900460ff1681565b60065481565b600260009054906101000a900473ffffffffffffffffffffffffffffffffffffffff1681565b60055481565b60035481565b6000809054906101000a900473ffffffffffffffffffffffffffffffffffffffff1673ffffffffffffffffffffffffffffffffffffffff163373ffffffffffffffffffffffffffffffffffffffff1614610568576040517f08c379a000000000000000000000000000000000000000000000000000000000815260040180806020018281038252602a815260200180610960602a913960400191505060405180910390fd5b8060058190555050565b6000809054906101000a900473ffffffffffffffffffffffffffffffffffffffff1673ffffffffffffffffffffffffffffffffffffffff163373ffffffffffffffffffffffffffffffffffffffff1614610617576040517f08c379a000000000000000000000000000000000000000000000000000000000815260040180806020018281038252602a815260200180610960602a913960400191505060405180910390fd5b6000600460006101000a81548160ff021916908315150217905550565b6000809054906101000a900473ffffffffffffffffffffffffffffffffffffffff1673ffffffffffffffffffffffffffffffffffffffff163373ffffffffffffffffffffffffffffffffffffffff16146106d9576040517f08c379a000000000000000000000000000000000000000000000000000000000815260040180806020018281038252602a815260200180610960602a913960400191505060405180910390fd5b600260009054906101000a900473ffffffffffffffffffffffffffffffffffffffff1673ffffffffffffffffffffffffffffffffffffffff168173ffffffffffffffffffffffffffffffffffffffff16141561079d576040517f08c379a00000000000000000000000000000000000000000000000000000000081526004018080602001828103825260158152602001807f4f776e65722063616e6e6f74206265204275796572000000000000000000000081525060200191505060405180910390fd5b600460009054906101000a900460ff1661081f576040517f08c379a00000000000000000000000000000000000000000000000000000000081526004018080602001828103825260148152602001807f4974656d206973206e6f7420666f722073656c6c00000000000000000000000081525060200191505060405180910390fd5b346003541115610897576040517f08c379a000000000000000000000000000000000000000000000000000000000815260040180806020018281038252601a8152602001807f496e737566696369656e742066756e647320726563696576656400000000000081525060200191505060405180910390fd5b6000600460006101000a81548160ff021916908315150217905550600260009054906101000a900473ffffffffffffffffffffffffffffffffffffffff1673ffffffffffffffffffffffffffffffffffffffff166108fc349081150290604051600060405180830381858888f1935050505015801561091a573d6000803e3d6000fd5b5080600260006101000a81548173ffffffffffffffffffffffffffffffffffffffff021916908373ffffffffffffffffffffffffffffffffffffffff1602179055505056fe4f6e6c79207472757374656420697044617461626173652063616e206d616b6520746869732063616c6ca265627a7a7231582045eb1caad008e754772be215d4ca8cbeb7441d3e2866c01670fe1c3ae2f8b04764736f6c634300051000324861736820616c72656164792065786973747320696e20746865204461746162617365214f776e65722063616e6e6f742062757920686973206f776e2070726f70657274794f6e6c79206f776e65722063616e2073746172742073656c6c696e67206869732070726f7065727479a265627a7a723158201fedeef0805db924ed0a1f81fbc52ad01384e30744ce942caa141f2d922c70bf64736f6c63430005100032",
  "source": "// SPDX-License-Identifier: MIT\npragma solidity 0.5.16;\n\ncontract Property{\n    \n    address private databaseReference; //reference to the database object - for security concerns (trust )\n    \n    string public hash;\n    address payable public owner;\n    \n    uint public price;\n    bool public isForSale;\n    uint public ownersIndex; //<- importand for later so that we can remove it from ownersList without loop\n    uint public sellingIndex; //<- importand for later so that we remove it from sellingList without loop\n    //verification of owner happens inside trusted contract!\n    modifier fromTrustedContract() {\n        require(\n            msg.sender == databaseReference,\n            \"Only trusted ipDatabase can make this call\"\n        );\n        _;\n    }\n    \n   \n    event PropertySold(address oldOwner, address newOwner);\n    event PropertyIsForSale();\n    \n    constructor(string memory _hash, address payable _owner, address _databaseReference) public {\n        hash = _hash;\n        owner = _owner;\n        databaseReference = _databaseReference;\n        isForSale = false;\n    }\n   \n    function buy (address payable buyer) public payable fromTrustedContract{\n        require(buyer!=owner, \"Owner cannot be Buyer\");\n        require(isForSale, \"Item is not for sell\");\n        require(price<= msg.value, \"Insuficient funds recieved\");\n        isForSale = false;\n        owner.transfer(msg.value); //transfer funds to the previous owner\n        owner = buyer; //set the new owner\n    }\n    \n    function startSelling(uint _price,uint _sellingIndex) public fromTrustedContract {\n        price = _price;\n        isForSale = true;\n        sellingIndex = _sellingIndex;\n    }\n    \n    function stopSelling() public fromTrustedContract{\n        isForSale = false;\n    }\n    \n    function setOwnersIndex(uint newIndex) public fromTrustedContract{\n        ownersIndex = newIndex;\n    }\n    \n} \n\ncontract ipDatabase{\n   \n    //maps owners to their properties \n    mapping(address => Property[]) public ownerToHashes;\n    //intellectual property Database - storing all Properties (music files)\n    mapping(string => address) public hashDatabase;\n    //stores properties that are for sale - to avoid loops\n    Property[] itemsForSale;\n    \n    \n    //displays selling properties\n   function getItemsForSale() public view returns  (Property[] memory){\n       return itemsForSale;\n   }\n\n    function addProperty(string memory hash) public payable returns (Property) {\n       require(hashDatabase[hash]==address(0x0),\"Hash already exists in the Database!\");\n       \n        Property pnew = new Property(hash,msg.sender,address(this));\n        hashDatabase[hash]= address(pnew);\n        ownerToHashes[msg.sender].push(pnew);\n        return pnew;\n    }\n    \n    function buyProperty(string memory _hash) public payable {\n        require(hashDatabase[_hash]!=address(0x0),\"Hash doesnt exist\");\n        Property p = Property(address(hashDatabase[_hash]));\n        require(p.owner()!=msg.sender, \"Owner cannot buy his own property\");\n        //call buy function and pass the money to the buy function...\n        address oldOwner = p.owner(); //need it for later to remove property from his list\n        p.buy.value(msg.value)(msg.sender); //<- this is how you forward the money to the next function/contract\n    \n        //if we are here that means the property got sold \n        //remove from listing\n        removeProperty(itemsForSale,p.sellingIndex());\n        //remove from old-owners list\n        removeProperty(ownerToHashes[oldOwner],p.ownersIndex());\n        //add to new owners list and update owners index inside the property\n        p.setOwnersIndex(ownerToHashes[p.owner()].push(p)-1);\n    }\n    \n    function removeProperty(Property[] storage list, uint index) private {\n        if(list.length>1){ \n            //if more than one element, switch last with the item to remove\n            list[index]=list[list.length-1];\n        }\n        //decrease list size\n        //list.length--; \n        list.pop(); \n    }\n    \n    function startSellingProperty(string memory _hash, uint price) public  {\n        require(hashDatabase[_hash]!=address(0x0),\"Hash doesnt exist\");\n        Property p = Property(address(hashDatabase[_hash]));\n        require(p.isForSale()==false,\"Property already for sale!\");\n        require(p.owner()==msg.sender, \"Only owner can start selling his property\");\n        itemsForSale.push(p); //put the listing up\n        //call buy function and pass the money to the buy function...\n        p.startSelling(price,itemsForSale.length-1); //TODO doesnt work because msg.sender will be the contract itself..\n        \n    }\n    function getOwnerOfHash(string memory _hash) public view returns (address) {\n       require(hashDatabase[_hash]!=address(0x0),\"Hash doesnt exist\");\n       Property p = Property(address(hashDatabase[_hash]));\n       return p.owner();\n    }\n    \n    function getMyProperties() public view returns (Property[] memory) {\n        require(ownerToHashes[msg.sender].length!=0,\"Owner has no posessions\");\n        return ownerToHashes[msg.sender];\n    }\n    \n\n}\n//for testing\ncontract MaliciousContract {\n    //test - trying to start selling some property without beeing owner\n    function startSellingOfSomeonesHash(address prop) public  {\n        Property p = Property(address(prop));\n        p.startSelling(1,1);\n    }\n}\n\n",
  "sourcePath": "/home/krystsina/Documents/inflation/contracts/mycontracts/copyrights.sol",
  "compiler": {
    "name": "solc",
    "version": "0.5.16+commit.9c3226ce.Emscripten.clang"
  },
  "schemaVersion": "3.2.0",
  "updatedAt": "2020-06-26T13:53:06.381Z",
  "devdoc": {
    "methods": {}
  },
  "userdoc": {
    "methods": {}
  }
}