{
  "contractName": "MaliciousContract",
  "abi": [
    {
      "constant": false,
      "inputs": [
        {
          "internalType": "address",
          "name": "prop",
          "type": "address"
        }
      ],
      "name": "startSellingOfSomeonesHash",
      "outputs": [],
      "payable": false,
      "stateMutability": "nonpayable",
      "type": "function"
    }
  ],
  "bytecode": "0x608060405234801561001057600080fd5b5061011e806100206000396000f3fe6080604052348015600f57600080fd5b506004361060285760003560e01c8063782947ee14602d575b600080fd5b606c60048036036020811015604157600080fd5b81019080803573ffffffffffffffffffffffffffffffffffffffff169060200190929190505050606e565b005b60008190508073ffffffffffffffffffffffffffffffffffffffff1663207368fc6001806040518363ffffffff1660e01b81526004018083815260200182815260200192505050600060405180830381600087803b15801560ce57600080fd5b505af115801560e1573d6000803e3d6000fd5b50505050505056fea265627a7a72315820819768eac2fdd4e2d91d68748ca1f580a816688d37869356e625fecd84e9026564736f6c63430005100032",
  "source": "// SPDX-License-Identifier: MIT\npragma solidity 0.5.16;\n\ncontract Property{\n    \n    address private databaseReference; //reference to the database object - for security concerns (trust )\n    \n    string public hash;\n    address payable public owner;\n    \n    uint public price;\n    bool public isForSale;\n    uint public ownersIndex; //<- importand for later so that we can remove it from ownersList without loop\n    uint public sellingIndex; //<- importand for later so that we remove it from sellingList without loop\n    //verification of owner happens inside trusted contract!\n    modifier fromTrustedContract() {\n        require(\n            msg.sender == databaseReference,\n            \"Only trusted ipDatabase can make this call\"\n        );\n        _;\n    }\n    \n   \n    event PropertySold(address oldOwner, address newOwner);\n    event PropertyIsForSale();\n    \n    constructor(string memory _hash, address payable _owner, address _databaseReference) public {\n        hash = _hash;\n        owner = _owner;\n        databaseReference = _databaseReference;\n        isForSale = false;\n    }\n   \n    function buy (address payable buyer) public payable fromTrustedContract{\n        require(buyer!=owner, \"Owner cannot be Buyer\");\n        require(isForSale, \"Item is not for sell\");\n        require(price<= msg.value, \"Insuficient funds recieved\");\n        isForSale = false;\n        owner.transfer(msg.value); //transfer funds to the previous owner\n        owner = buyer; //set the new owner\n    }\n    \n    function startSelling(uint _price,uint _sellingIndex) public fromTrustedContract {\n        price = _price;\n        isForSale = true;\n        sellingIndex = _sellingIndex;\n    }\n    \n    function stopSelling() public fromTrustedContract{\n        isForSale = false;\n    }\n    \n    function setOwnersIndex(uint newIndex) public fromTrustedContract{\n        ownersIndex = newIndex;\n    }\n    \n} \n\ncontract ipDatabase{\n   \n    //maps owners to their properties \n    mapping(address => Property[]) public ownerToHashes;\n    //intellectual property Database - storing all Properties (music files)\n    mapping(string => address) public hashDatabase;\n    //stores properties that are for sale - to avoid loops\n    Property[] itemsForSale;\n    \n    \n    //displays selling properties\n   function getItemsForSale() public view returns  (Property[] memory){\n       return itemsForSale;\n   }\n\n    function addProperty(string memory hash) public payable returns (Property) {\n       require(hashDatabase[hash]==address(0x0),\"Hash already exists in the Database!\");\n       \n        Property pnew = new Property(hash,msg.sender,address(this));\n        hashDatabase[hash]= address(pnew);\n        ownerToHashes[msg.sender].push(pnew);\n        return pnew;\n    }\n    \n    function buyProperty(string memory _hash) public payable {\n        require(hashDatabase[_hash]!=address(0x0),\"Hash doesnt exist\");\n        Property p = Property(address(hashDatabase[_hash]));\n        require(p.owner()!=msg.sender, \"Owner cannot buy his own property\");\n        //call buy function and pass the money to the buy function...\n        address oldOwner = p.owner(); //need it for later to remove property from his list\n        p.buy.value(msg.value)(msg.sender); //<- this is how you forward the money to the next function/contract\n    \n        //if we are here that means the property got sold \n        //remove from listing\n        removeProperty(itemsForSale,p.sellingIndex());\n        //remove from old-owners list\n        removeProperty(ownerToHashes[oldOwner],p.ownersIndex());\n        //add to new owners list and update owners index inside the property\n        p.setOwnersIndex(ownerToHashes[p.owner()].push(p)-1);\n    }\n    \n    function removeProperty(Property[] storage list, uint index) private {\n        if(list.length>1){ \n            //if more than one element, switch last with the item to remove\n            list[index]=list[list.length-1];\n        }\n        //decrease list size\n        //list.length--; \n        list.pop(); \n    }\n    \n    function startSellingProperty(string memory _hash, uint price) public  {\n        require(hashDatabase[_hash]!=address(0x0),\"Hash doesnt exist\");\n        Property p = Property(address(hashDatabase[_hash]));\n        require(p.isForSale()==false,\"Property already for sale!\");\n        require(p.owner()==msg.sender, \"Only owner can start selling his property\");\n        itemsForSale.push(p); //put the listing up\n        //call buy function and pass the money to the buy function...\n        p.startSelling(price,itemsForSale.length-1); //TODO doesnt work because msg.sender will be the contract itself..\n        \n    }\n\n    function stopSellingProperty(string memory _hash) public {\n        require(hashDatabase[_hash]!=address(0x0),\"Hash doesnt exist\");\n        Property p = Property(address(hashDatabase[_hash]));\n        require(p.isForSale()==true,\"Property is not for sale!\");\n        require(p.owner()==msg.sender, \"Only owner can stop selling his property\");\n        \n        removeProperty(itemsForSale,p.sellingIndex());\n        p.stopSelling();\n    }\n\n    function getOwnerOfHash(string memory _hash) public view returns (address) {\n       require(hashDatabase[_hash]!=address(0x0),\"Hash doesnt exist\");\n       Property p = Property(address(hashDatabase[_hash]));\n       return p.owner();\n    }\n    \n    function getMyProperties() public view returns (Property[] memory) {\n        require(ownerToHashes[msg.sender].length!=0,\"Owner has no posessions\");\n        return ownerToHashes[msg.sender];\n    }\n    \n\n}\n//for testing\ncontract MaliciousContract {\n    //test - trying to start selling some property without beeing owner\n    function startSellingOfSomeonesHash(address prop) public  {\n        Property p = Property(address(prop));\n        p.startSelling(1,1);\n    }\n}\n\n",
  "sourcePath": "/home/krystsina/Documents/inflation/contracts/mycontracts/copyrights.sol",
  "compiler": {
    "name": "solc",
    "version": "0.5.16+commit.9c3226ce.Emscripten.clang"
  },
  "schemaVersion": "3.2.0",
  "updatedAt": "2020-06-26T16:04:01.826Z",
  "devdoc": {
    "methods": {}
  },
  "userdoc": {
    "methods": {}
  }
}