{
  "contractName": "Property",
  "abi": [
    {
      "inputs": [
        {
          "internalType": "string",
          "name": "_hash",
          "type": "string"
        },
        {
          "internalType": "address payable",
          "name": "_owner",
          "type": "address"
        },
        {
          "internalType": "address",
          "name": "_databaseReference",
          "type": "address"
        }
      ],
      "payable": false,
      "stateMutability": "nonpayable",
      "type": "constructor"
    },
    {
      "anonymous": false,
      "inputs": [],
      "name": "PropertyIsForSale",
      "type": "event"
    },
    {
      "anonymous": false,
      "inputs": [
        {
          "indexed": false,
          "internalType": "address",
          "name": "oldOwner",
          "type": "address"
        },
        {
          "indexed": false,
          "internalType": "address",
          "name": "newOwner",
          "type": "address"
        }
      ],
      "name": "PropertySold",
      "type": "event"
    },
    {
      "constant": true,
      "inputs": [],
      "name": "hash",
      "outputs": [
        {
          "internalType": "string",
          "name": "",
          "type": "string"
        }
      ],
      "payable": false,
      "stateMutability": "view",
      "type": "function"
    },
    {
      "constant": true,
      "inputs": [],
      "name": "isForSale",
      "outputs": [
        {
          "internalType": "bool",
          "name": "",
          "type": "bool"
        }
      ],
      "payable": false,
      "stateMutability": "view",
      "type": "function"
    },
    {
      "constant": true,
      "inputs": [],
      "name": "owner",
      "outputs": [
        {
          "internalType": "address payable",
          "name": "",
          "type": "address"
        }
      ],
      "payable": false,
      "stateMutability": "view",
      "type": "function"
    },
    {
      "constant": true,
      "inputs": [],
      "name": "ownersIndex",
      "outputs": [
        {
          "internalType": "uint256",
          "name": "",
          "type": "uint256"
        }
      ],
      "payable": false,
      "stateMutability": "view",
      "type": "function"
    },
    {
      "constant": true,
      "inputs": [],
      "name": "price",
      "outputs": [
        {
          "internalType": "uint256",
          "name": "",
          "type": "uint256"
        }
      ],
      "payable": false,
      "stateMutability": "view",
      "type": "function"
    },
    {
      "constant": true,
      "inputs": [],
      "name": "sellingIndex",
      "outputs": [
        {
          "internalType": "uint256",
          "name": "",
          "type": "uint256"
        }
      ],
      "payable": false,
      "stateMutability": "view",
      "type": "function"
    },
    {
      "constant": false,
      "inputs": [
        {
          "internalType": "address payable",
          "name": "buyer",
          "type": "address"
        }
      ],
      "name": "buy",
      "outputs": [],
      "payable": true,
      "stateMutability": "payable",
      "type": "function"
    },
    {
      "constant": false,
      "inputs": [
        {
          "internalType": "uint256",
          "name": "_price",
          "type": "uint256"
        },
        {
          "internalType": "uint256",
          "name": "_sellingIndex",
          "type": "uint256"
        }
      ],
      "name": "startSelling",
      "outputs": [],
      "payable": false,
      "stateMutability": "nonpayable",
      "type": "function"
    },
    {
      "constant": false,
      "inputs": [],
      "name": "stopSelling",
      "outputs": [],
      "payable": false,
      "stateMutability": "nonpayable",
      "type": "function"
    },
    {
      "constant": false,
      "inputs": [
        {
          "internalType": "uint256",
          "name": "newIndex",
          "type": "uint256"
        }
      ],
      "name": "setOwnersIndex",
      "outputs": [],
      "payable": false,
      "stateMutability": "nonpayable",
      "type": "function"
    }
  ],
  "bytecode": "0x608060405234801561001057600080fd5b50604051610c32380380610c328339818101604052606081101561003357600080fd5b810190808051604051939291908464010000000082111561005357600080fd5b8382019150602082018581111561006957600080fd5b825186600182028301116401000000008211171561008657600080fd5b8083526020830192505050908051906020019080838360005b838110156100ba57808201518184015260208101905061009f565b50505050905090810190601f1680156100e75780820380516001836020036101000a031916815260200191505b506040526020018051906020019092919080519060200190929190505050826001908051906020019061011b9291906101c0565b5081600260006101000a81548173ffffffffffffffffffffffffffffffffffffffff021916908373ffffffffffffffffffffffffffffffffffffffff160217905550806000806101000a81548173ffffffffffffffffffffffffffffffffffffffff021916908373ffffffffffffffffffffffffffffffffffffffff1602179055506000600460006101000a81548160ff021916908315150217905550505050610265565b828054600181600116156101000203166002900490600052602060002090601f016020900481019282601f1061020157805160ff191683800117855561022f565b8280016001018555821561022f579182015b8281111561022e578251825591602001919060010190610213565b5b50905061023c9190610240565b5090565b61026291905b8082111561025e576000816000905550600101610246565b5090565b90565b6109be806102746000396000f3fe6080604052600436106100915760003560e01c80639bd3b70c116100595780639bd3b70c1461021c578063a035b1fe14610247578063adb75c0f14610272578063b2dc7115146102ad578063f088d547146102c457610091565b806309bd5a6014610096578063207368fc1461012657806320b08dc21461016b578063808414051461019a5780638da5cb5b146101c5575b600080fd5b3480156100a257600080fd5b506100ab610308565b6040518080602001828103825283818151815260200191508051906020019080838360005b838110156100eb5780820151818401526020810190506100d0565b50505050905090810190601f1680156101185780820380516001836020036101000a031916815260200191505b509250505060405180910390f35b34801561013257600080fd5b506101696004803603604081101561014957600080fd5b8101908080359060200190929190803590602001909291905050506103a6565b005b34801561017757600080fd5b50610180610478565b604051808215151515815260200191505060405180910390f35b3480156101a657600080fd5b506101af61048b565b6040518082815260200191505060405180910390f35b3480156101d157600080fd5b506101da610491565b604051808273ffffffffffffffffffffffffffffffffffffffff1673ffffffffffffffffffffffffffffffffffffffff16815260200191505060405180910390f35b34801561022857600080fd5b506102316104b7565b6040518082815260200191505060405180910390f35b34801561025357600080fd5b5061025c6104bd565b6040518082815260200191505060405180910390f35b34801561027e57600080fd5b506102ab6004803603602081101561029557600080fd5b81019080803590602001909291905050506104c3565b005b3480156102b957600080fd5b506102c2610572565b005b610306600480360360208110156102da57600080fd5b81019080803573ffffffffffffffffffffffffffffffffffffffff169060200190929190505050610634565b005b60018054600181600116156101000203166002900480601f01602080910402602001604051908101604052809291908181526020018280546001816001161561010002031660029004801561039e5780601f106103735761010080835404028352916020019161039e565b820191906000526020600020905b81548152906001019060200180831161038157829003601f168201915b505050505081565b6000809054906101000a900473ffffffffffffffffffffffffffffffffffffffff1673ffffffffffffffffffffffffffffffffffffffff163373ffffffffffffffffffffffffffffffffffffffff161461044b576040517f08c379a000000000000000000000000000000000000000000000000000000000815260040180806020018281038252602a815260200180610960602a913960400191505060405180910390fd5b816003819055506001600460006101000a81548160ff021916908315150217905550806006819055505050565b600460009054906101000a900460ff1681565b60065481565b600260009054906101000a900473ffffffffffffffffffffffffffffffffffffffff1681565b60055481565b60035481565b6000809054906101000a900473ffffffffffffffffffffffffffffffffffffffff1673ffffffffffffffffffffffffffffffffffffffff163373ffffffffffffffffffffffffffffffffffffffff1614610568576040517f08c379a000000000000000000000000000000000000000000000000000000000815260040180806020018281038252602a815260200180610960602a913960400191505060405180910390fd5b8060058190555050565b6000809054906101000a900473ffffffffffffffffffffffffffffffffffffffff1673ffffffffffffffffffffffffffffffffffffffff163373ffffffffffffffffffffffffffffffffffffffff1614610617576040517f08c379a000000000000000000000000000000000000000000000000000000000815260040180806020018281038252602a815260200180610960602a913960400191505060405180910390fd5b6000600460006101000a81548160ff021916908315150217905550565b6000809054906101000a900473ffffffffffffffffffffffffffffffffffffffff1673ffffffffffffffffffffffffffffffffffffffff163373ffffffffffffffffffffffffffffffffffffffff16146106d9576040517f08c379a000000000000000000000000000000000000000000000000000000000815260040180806020018281038252602a815260200180610960602a913960400191505060405180910390fd5b600260009054906101000a900473ffffffffffffffffffffffffffffffffffffffff1673ffffffffffffffffffffffffffffffffffffffff168173ffffffffffffffffffffffffffffffffffffffff16141561079d576040517f08c379a00000000000000000000000000000000000000000000000000000000081526004018080602001828103825260158152602001807f4f776e65722063616e6e6f74206265204275796572000000000000000000000081525060200191505060405180910390fd5b600460009054906101000a900460ff1661081f576040517f08c379a00000000000000000000000000000000000000000000000000000000081526004018080602001828103825260148152602001807f4974656d206973206e6f7420666f722073656c6c00000000000000000000000081525060200191505060405180910390fd5b346003541115610897576040517f08c379a000000000000000000000000000000000000000000000000000000000815260040180806020018281038252601a8152602001807f496e737566696369656e742066756e647320726563696576656400000000000081525060200191505060405180910390fd5b6000600460006101000a81548160ff021916908315150217905550600260009054906101000a900473ffffffffffffffffffffffffffffffffffffffff1673ffffffffffffffffffffffffffffffffffffffff166108fc349081150290604051600060405180830381858888f1935050505015801561091a573d6000803e3d6000fd5b5080600260006101000a81548173ffffffffffffffffffffffffffffffffffffffff021916908373ffffffffffffffffffffffffffffffffffffffff1602179055505056fe4f6e6c79207472757374656420697044617461626173652063616e206d616b6520746869732063616c6ca265627a7a723158206de333f1f2dc8f9da84d1089aa856f8c6514dadfdbd0b69826c4f4f094b55be664736f6c63430005100032",
  "source": "// SPDX-License-Identifier: MIT\r\npragma solidity 0.5.16;\r\n\r\ncontract Property {\r\n\r\n    address private databaseReference; //reference to the database object - for security concerns (trust )\r\n\r\n    string public hash;\r\n    address payable public owner;\r\n\r\n    uint public price;\r\n    bool public isForSale;\r\n    uint public ownersIndex; //<- importand for later so that we can remove it from ownersList without loop\r\n    uint public sellingIndex; //<- importand for later so that we remove it from sellingList without loop\r\n    //verification of owner happens inside trusted contract!\r\n    modifier fromTrustedContract() {\r\n        require(\r\n            msg.sender == databaseReference,\r\n            \"Only trusted ipDatabase can make this call\"\r\n        );\r\n        _;\r\n    }\r\n\r\n\r\n    event PropertySold(address oldOwner, address newOwner);\r\n    event PropertyIsForSale();\r\n\r\n    constructor(string memory _hash, address payable _owner, address _databaseReference) public {\r\n        hash = _hash;\r\n        owner = _owner;\r\n        databaseReference = _databaseReference;\r\n        isForSale = false;\r\n    }\r\n\r\n    function buy (address payable buyer) public payable fromTrustedContract{\r\n        require(buyer!=owner, \"Owner cannot be Buyer\");\r\n        require(isForSale, \"Item is not for sell\");\r\n        require(price <= msg.value, \"Insuficient funds recieved\");\r\n        isForSale = false;\r\n        owner.transfer(msg.value); //transfer funds to the previous owner\r\n        owner = buyer; //set the new owner\r\n    }\r\n\r\n    function startSelling(uint _price,uint _sellingIndex) public fromTrustedContract {\r\n        price = _price;\r\n        isForSale = true;\r\n        sellingIndex = _sellingIndex;\r\n    }\r\n\r\n    function stopSelling() public fromTrustedContract{\r\n        isForSale = false;\r\n    }\r\n\r\n    function setOwnersIndex(uint newIndex) public fromTrustedContract{\r\n        ownersIndex = newIndex;\r\n    }\r\n\r\n}\r\n//for testing\r\n/* contract MaliciousContract {\r\n    //test - trying to start selling some property without beeing owner\r\n    function startSellingOfSomeonesHash(address prop) public  {\r\n        Property p = Property(address(prop));\r\n        p.startSelling(1,1);\r\n    }\r\n} */\r\n\r\n",
  "sourcePath": "/mnt/d/Documents/Studia/Blockchain/Projekt/inflation/contracts/Property.sol",
  "compiler": {
    "name": "solc",
    "version": "0.5.16+commit.9c3226ce.Emscripten.clang"
  },
  "schemaVersion": "3.2.1",
  "updatedAt": "2020-07-03T13:28:42.351Z",
  "devdoc": {
    "methods": {}
  },
  "userdoc": {
    "methods": {}
  }
}